:100000000C9437000C945F000C945F000C945F001C
:100010000C945F000C945F000C945F000C945F00E4
:100020000C945F000C945F000C945F000C945F00D4
:100030000C945F000C945F000C945F000C945F00C4
:100040000C945F000C945F000C9499020C945B027A
:100050000C945F000C945F000C945F000C945F00A4
:100060000C945F000C945F009C04C904C504112427
:100070001FBECFEFD8E0DEBFCDBF11E0A0E0B1E002
:10008000E2EFF1E102C005900D92AC33B107D9F770
:1000900021E0ACE3B1E001C01D92AF36B207E1F759
:1000A00010E0C6E3D0E004C02197FE010E94D8040E
:1000B000C433D107C9F70E9495040C94EC080C9442
:1000C000000060E070E08FE491E00E943E0487E46D
:1000D00091E00E949104FC0165818FE491E00E940F
:1000E0002F0482E491E00C948C000895CF93DF9369
:1000F0001F92CDB7DEB7FC012983718360838981AC
:1001000084838481DB019C91892B8C93538342836C
:100110000F90DF91CF910895FC0194810280F381CB
:10012000E02D8081892B80830895FC0194810280D9
:10013000F381E02D8081282F30E0892F90E0809599
:1001400090958223932380830895CF93DF9300D0EB
:1001500000D000D0CDB7DEB7A4E6B0E09A01AB0185
:100160000E94CD0469837A838B839C831E821D82C7
:100170008D819E8149815A816B817C81092E000C81
:10018000AA0BBB0B481759076A077B0730F08D8114
:100190009E8101969E838D83EBCF26960FB6F894B1
:1001A000DEBF0FBECDBFDF91CF9108950C94ED045B
:1001B0000C94ED040C9482050C948205AF92BF92CE
:1001C000CF92DF92EF92FF920F931F93CF93DF9323
:1001D00000D000D0CDB7DEB75C01672B21F4FC0165
:1001E0001182108205C08FEF9FEFF501918380830C
:1001F0008AE090E029833A834B835C830E94D60097
:100200006C01B8010E94CC02F501D382C2828AE05F
:1002100090E00E94D6008C01B7010E94CC02F5014B
:10022000158304836081718185E591E00E94F80166
:10023000F501E480F580028113816081718129815B
:100240003A814B815C8185E591E00E94F9010F9034
:100250000F900F900F90DF91CF911F910F91FF9012
:10026000EF90DF90CF90BF90AF9008950F931F93C2
:10027000CF93DF938C01FC01C281D381209731F0B1
:10028000CE010E94DF02CE010E94DA00F801C48193
:10029000D581209751F0CE010E94DF02CE01DF917F
:1002A000CF911F910F910C94DA00DF91CF911F91A4
:1002B0000F9108950F931F93CF93DF938C01EB0160
:1002C000FC01828193810E945403892BC1F46C2F1D
:1002D000F801828193810E94E402CA30D10531F491
:1002E0006DE0F801828193810E94E402F80160814F
:1002F000718185E591E00E943902CE0102C08FEF45
:100300009FEFDF91CF911F910F910895CF92DF92D0
:10031000EF92FF920F931F93CF93DF937C016B01BA
:100320008B01E801F80191918F01992341F0692F28
:10033000990F770BC7010E945A0197FFF2CF6AE02D
:1003400070E0C7010E945A01CE018C199D090196E7
:10035000DF91CF911F910F91FF90EF90DF90CF90A1
:100360000895CF93DF93EC018C819D810E9454030B
:10037000892B31F46881798185E591E00E945902E9
:100380008C819D810E944903892B31F48C819D8150
:100390000E941B0390E002C08FEF9FEFDF91CF918F
:1003A0000895EF92FF920F931F93CF93DF9300D0A6
:1003B000CDB7DEB78C017B01C80169837A830E94C7
:1003C000B10169817A81F7018A30910529F097FDA1
:1003D00003C081937F01F0CF1082CB010F900F906B
:1003E000DF91CF911F910F91FF90EF9008950895A5
:1003F0000895EF92FF920F931F93FC01CB01880F9A
:10040000991FDC01AF59BE4F0D931C93DC01A35A19
:10041000BE4FED92FC9280EC90E09183808386EC5D
:1004200090E090935C0180935B0181EC90E090936D
:10043000580180935701A081B18115961C92A0812B
:10044000B18187E614968C9370935A016093590199
:100450000190F081E02D86E082831F910F91FF9043
:10046000EF900895DC01ED91FC91818180628183A0
:1004700008950F931F93CF93DF938C01EB01CC0F63
:10048000DD1FCF59DE4F888199810E944903892B56
:1004900021F4C8010E943202F6CFDF91CF911F9163
:1004A0000F910895DC01ED91FC9181818068818339
:1004B00008950C9452021F920F920FB60F921124BE
:1004C0002F933F934F935F936F937F938F939F935C
:1004D000AF93BF93CF93DF93EF93FF93E0915701D7
:1004E000F091580180818F7D8083C0915B01D09114
:1004F0005C01E0915901F0915A01EE0FFF1FEF5995
:10050000FE4F808191810E941B038883FF91EF91B0
:10051000DF91CF91BF91AF919F918F917F916F911B
:100520005F914F913F912F910F900FBE0F901F90B1
:1005300018951F920F920FB60F9211242F933F938D
:100540004F935F936F937F938F939F93AF93BF93DB
:10055000EF93FF93E0915B01F0915C016081E0918A
:100560005901F0915A01EE0FFF1FE35AFE4F8081AF
:1005700091810E94E402FF91EF91BF91AF919F9111
:100580008F917F916F915F914F913F912F910F903C
:100590000FBE0F901F901895CF93DF93EC01CB0106
:1005A0007B836A830E94D800998388831D821C8282
:1005B0001F821E8219861886DF91CF910895FC0153
:1005C000808191810C94DA00FC01808591850097EF
:1005D00069F4A081B1816C938085918501969187A2
:1005E00080871582148217821682089522813381B2
:1005F00082179307F9F08681978101969783868306
:10060000A081B181A901415051098417950719F4BE
:10061000A80FB91F09C08217930714F0178216821A
:1006200026813781A20FB31F6C9380859185019637
:10063000918780870895FC0180859185892BC9F079
:10064000A081B18184819581A80FB91F8C911C92E2
:100650002481358142815381415051092417350746
:1006600019F41582148206C02F5F3F4F358324830F
:1006700001C080E2208531852150310931872087F2
:10068000232B31F41582148217821682118610866C
:10069000089521E030E0FC0180859185892B11F0DF
:1006A00020E030E0C9010895FC0181E090E0408540
:1006B0005185228133814217530711F080E090E089
:1006C0000895AF92BF92CF92DF92EF92FF920F9375
:1006D0001F93CF93DF938C018BE590E00E9430064F
:1006E00096E0E92E91E0F92EC0E0D0E02FE0C22E96
:1006F00021E0D22E38E0A32E31E0B32ED80112969D
:100700002D913C911397C217D307A4F5D801ED9111
:10071000FC91EC0FFD1F9081492F50E021503109D1
:100720002C173D0721F48BE3E82E81E0F82EF7012A
:100730008081282F082E000C330B452B79F03F9336
:100740008F931F929F93BF92AF920E941A060F90B1
:100750000F900F900F900F900F900AC03F938F93C0
:10076000DF92CF920E941A060F900F900F900F9079
:100770002196C4CF8DE590E0DF91CF911F910F912D
:10078000FF90EF90DF90CF90BF90AF900C94300629
:10079000CF93DF93EC018D818F938C818F9385E1D3
:1007A00091E09F938F930E941A068F818F938E8181
:1007B0008F9382E291E09F938F930E941A0689851E
:1007C0008F9388858F938EE291E09F938F930E9401
:1007D0001A068DB79EB70C960FB6F8949EBF0FBE43
:1007E0008DBFCE01DF91CF910C946103FC01A481F8
:1007F000B58182E08C93A481B58184E011968C93BD
:10080000A481B58188E012968C93A481B58180E1A2
:1008100013968C93A481B58180E214968C938CB549
:1008200090E0938382830190F081E02D84E290E058
:100830009183808385E290E0938382830895FC0115
:10084000A081B1810D90BC91A02D9C919E629C9342
:100850000280F381E02D8081866080830895DC0131
:100860001296ED91FC91139762831296ED91FC9193
:1008700013978181877009F4FFCF08956115710581
:1008800021F06130710551F00895DC01ED91FC918A
:100890000280F381E02D80818B7F08C0DC01ED9127
:1008A000FC910280F381E02D808184608083089533
:1008B000DC01ED91FC9111970190F081E02D20E198
:1008C00020831296ED91FC91139786E08083089522
:1008D000DC011296ED91FC9113978181877009F4E8
:1008E000FFCF82810895FC0183E490E091838083AF
:1008F0008BE390E09383828381E490E0958384830B
:1009000083E090E0978386830895FC018081918144
:100910000895FC01828193810895FC018481958171
:100920000895FC018681978108958FE491E00E94EB
:100930001F040E946100FDCFEF92FF920F931F935F
:100940008FE491E00E94F60387E491E00E94730433
:1009500020E245E250E064E270E082E491E00E942F
:10096000760082E3E82EF12C02E310E020E835E285
:1009700040E050E060E070E08CE391E00E94DE0037
:100980001F910F91FF90EF9008958CE391E00C94EC
:10099000360185E591E00C94F7010E94DE04A59FE5
:1009A000900DB49F900DA49F800D911D112408956A
:1009B000EE0FFF1F0590F491E02D0994A29FB00166
:1009C000B39FC001A39F700D811D1124911DB29F83
:1009D000700D811D1124911D0895CF93DF938230F6
:1009E000910510F482E090E0E0916701F0916801D8
:1009F00020E030E0C0E0D0E0309711F1408151813B
:100A000048175907C0F04817590761F4828193814C
:100A1000209719F09B838A832BC090936801809361
:100A2000670126C02115310519F04217530718F444
:100A30009A01BE01DF01EF010280F381E02DDCCFDE
:100A40002115310509F1281B390B2430310590F4AB
:100A500012968D919C9113976115710521F0FB0100
:100A60009383828304C09093680180936701FD01A2
:100A7000329644C0FD01E20FF31F819391932250FF
:100A800031092D933C933AC0209165013091660164
:100A9000232B41F420910201309103013093660130
:100AA000209365012091000130910101211531054C
:100AB00041F42DB73EB74091040150910501241B2C
:100AC000350BE0916501F0916601E217F307A0F4A0
:100AD0002E1B3F0B2817390778F0AC014E5F5F4F94
:100AE0002417350748F04E0F5F1F5093660140935F
:100AF00065018193919302C0E0E0F0E0CF01DF91C6
:100B0000CF9108950F931F93CF93DF93009709F42C
:100B10008CC0FC0132971382128200916701109100
:100B200068010115110581F420813181820F931F25
:100B300020916501309166012817390779F5F09306
:100B40006601E093650171C0D80140E050E0AE1746
:100B5000BF0750F412962D913C911397AD012115CA
:100B6000310509F1D901F3CF9D01DA0133832283E5
:100B700060817181860F971F8217930769F4EC01DA
:100B800028813981260F371F2E5F3F4F3183208305
:100B90008A819B8193838283452B29F4F09368019A
:100BA000E093670142C01396FC93EE931297ED0118
:100BB000499159919E01240F351FE217F30771F4F3
:100BC00080819181840F951F029611969C938E933C
:100BD0008281938113969C938E931297E0E0F0E0CC
:100BE000D80112968D919C911397009719F0F801F6
:100BF0008C01F6CF8D919C9198012E5F3F4F820F13
:100C0000931F20916501309166012817390769F417
:100C1000309729F4109268011092670102C0138284
:100C200012821093660100936501DF91CF911F91AD
:100C30000F910895A0E0B0E0E0E2F6E00C94C50862
:100C4000AE014B5F5F4FFA0161917191AF018091ED
:100C50006B0190916C010E943706E2E00C94E10870
:100C600060916B0170916C010E941F080895ACE0C7
:100C7000B0E0EDE3F6E00C94B5087C016B018A016D
:100C8000FC0117821682838181FFBDC1CE010196CE
:100C90004C01F7019381F60193FD859193FF8191BA
:100CA0006F01882309F4ABC1853239F493FD859136
:100CB00093FF81916F01853229F4B70190E00E9482
:100CC0001F08E7CF512C312C20E02032A0F48B32CA
:100CD00069F030F4803259F0833269F420612CC01D
:100CE0008D3239F0803339F4216026C022602460CF
:100CF00023C0286021C027FD27C030ED380F3A30CF
:100D000078F426FF06C0FAE05F9E300D1124532EC2
:100D100013C08AE0389E300D1124332E20620CC09F
:100D20008E3221F426FD6BC1206406C08C3611F48E
:100D3000206802C0883641F4F60193FD859193FF47
:100D400081916F018111C1CF982F9F7D9554933070
:100D500028F40C5F1F4FFFE3F9830DC0833631F099
:100D6000833771F0833509F05BC022C0F8018081C0
:100D700089830E5F1F4F44244394512C540115C0A6
:100D80003801F2E06F0E711CF801A080B18026FFDF
:100D900003C0652D70E002C06FEF7FEFC5012C87A7
:100DA0000E9414082C0183012C852F77222E17C056
:100DB0003801F2E06F0E711CF801A080B18026FFAF
:100DC00003C0652D70E002C06FEF7FEFC5012C8777
:100DD0000E9409082C012C852068222E830123FC07
:100DE0001BC0832D90E048165906B0F4B70180E28D
:100DF00090E00E941F083A94F4CFF50127FC8591FA
:100E000027FE81915F01B70190E00E941F08311019
:100E10003A94F1E04F1A51084114510471F7E5C0BA
:100E2000843611F0893639F5F80127FF07C0608153
:100E30007181828193810C5F1F4F08C06081718135
:100E4000072E000C880B990B0E5F1F4F2F76722E0A
:100E500097FF09C090958095709561957F4F8F4F52
:100E60009F4F2068722E2AE030E0A4010E945708AC
:100E7000A82EA81844C0853729F42F7EB22E2AE068
:100E800030E025C0F22FF97FBF2E8F36C1F018F465
:100E9000883579F0B4C0803719F0883721F0AFC0B9
:100EA0002F2F2061B22EB4FE0DC08B2D8460B82E82
:100EB00009C024FF0AC09F2F9660B92E06C028E003
:100EC00030E005C020E130E002C020E132E0F8016E
:100ED000B7FE07C060817181828193810C5F1F4FD3
:100EE00006C06081718180E090E00E5F1F4FA40119
:100EF0000E945708A82EA818FB2DFF777F2E76FE9C
:100F00000BC0372D3E7FA51450F474FE0AC072FC4E
:100F100008C0372D3E7E05C0BA2C372D03C0BA2C31
:100F200001C0B52C34FF0DC0FE01EA0DF11D80811A
:100F3000803311F4397E09C032FF06C0B394B394F4
:100F400004C0832F867809F0B39433FD13C030FFBB
:100F500006C05A2CB31418F4530C5B18B32CB314FA
:100F600068F4B70180E290E03C870E941F08B394C8
:100F70003C85F5CFB31410F43B1801C0312C34FF7D
:100F800012C0B70180E390E03C870E941F083C85B7
:100F900032FF17C031FD03C088E790E002C088E54A
:100FA00090E0B7010CC0832F867859F031FF02C062
:100FB0008BE201C080E237FD8DE2B70190E00E9434
:100FC0001F08A51438F4B70180E390E00E941F08C1
:100FD0005A94F7CFAA94F401EA0DF11D8081B7016C
:100FE00090E00E941F08A110F5CF332009F451CEE4
:100FF000B70180E290E00E941F083A94F6CFF70113
:101000008681978102C08FEF9FEF2C96E2E10C94CE
:10101000D108FC010590615070400110D8F780950F
:1010200090958E0F9F1F0895FC01615070400190B4
:101030000110D8F7809590958E0F9F1F08950F93FC
:101040001F93CF93DF93FB01238121FD03C08FEF1B
:101050009FEF28C022FF16C0468157812481358129
:101060004217530744F4A081B1819D012F5F3F4F88
:10107000318320838C93268137812F5F3F4F3783C5
:10108000268310C0EB01092F182F0084F185E02D75
:101090000995892BE1F68E819F8101969F838E832E
:1010A000812F902FDF91CF911F910F910895FA0119
:1010B000AA27283051F1203181F1E8946F936E7F97
:1010C0006E5F7F4F8F4F9F4FAF4FB1E03ED0B4E088
:1010D0003CD0670F781F891F9A1FA11D680F791FC9
:1010E0008A1F911DA11D6A0F711D811D911DA11DDA
:1010F00020D009F468943F912AE0269F11243019EA
:10110000305D3193DEF6CF010895462F4770405D84
:101110004193B3E00FD0C9F7F6CF462F4F70405D33
:101120004A3318F0495D31FD4052419302D0A9F78E
:10113000EACFB4E0A6959795879577956795BA9588
:10114000C9F700976105710508959B01AC010A2E4E
:1011500006945795479537952795BA95C9F7620F25
:10116000731F841F951FA01D08952F923F924F92C9
:101170005F926F927F928F929F92AF92BF92CF9227
:10118000DF92EF92FF920F931F93CF93DF93CDB730
:10119000DEB7CA1BDB0B0FB6F894DEBF0FBECDBFA8
:1011A00009942A88398848885F846E847D848C8479
:1011B0009B84AA84B984C884DF80EE80FD800C8182
:1011C0001B81AA81B981CE0FD11D0FB6F894DEBF65
:1011D0000FBECDBFED01089510E0C6E3D0E004C01E
:1011E000FE010E94D8042196C733D107C9F7F894AD
:0211F000FFCF2F
:1011F20000006F0120002C002025642025630020C0
:1012020023202563000A48454144203A20256420D2
:101212000A005441494C203A202564200A00434FD9
:0C122200554E54203A202564200A0A0092
:00000001FF
