:100000000C9437000C945F000C945F000C945F001C
:100010000C945F000C945F000C945F000C945F00E4
:100020000C945F000C945F000C945F000C945F00D4
:100030000C945F000C945F000C945F000C945F00C4
:100040000C945F000C945F000C945F000C945F00B4
:100050000C945F000C945F000C945F000C945F00A4
:100060000C945F000C945F006D049A0496041124B4
:100070001FBECFEFD8E0DEBFCDBF11E0A0E0B1E002
:10008000EAEDF1E102C005900D92A239B107D9F76E
:1000900021E0A2E9B1E001C01D92A23CB207E1F764
:1000A00010E0C6E3D0E004C02197FE010E94A9043D
:1000B000C433D107C9F70E9460040C94E0080C9483
:1000C00000000F931F93CF93DF93CDB7DEB7C95CCA
:1000D000D1090FB6F894DEBF0FBECDBF60E070E06F
:1000E00085EA91E00E94070485EA91E00E943304CA
:1000F000FC018081C753DF4F8883C95CD04085EA0B
:1001000091E00E943704FC0110816AE085EA91E0E9
:100110000E94000461E070E085EA91E00E9407041B
:100120001F921F9386E091E09F938F938E010B594E
:100130001F4F1F930F930E940806B80182E991E0B8
:100140000E94DA01C753DF4F8881C95CD0401F92FB
:100150008F9384E391E09F938F93045611091F932B
:100160000F930E940806B80182E991E00E94DA012B
:100170000FB6F894DEBF0FBECDBFC753DF4F0FB62B
:10018000F894DEBF0FBECDBFDF91CF911F910F91CD
:1001900008950895CF93DF931F92CDB7DEB7FC018A
:1001A000298371836083898184838481DB019C91AD
:1001B000892B8C93538342830F90DF91CF910895C5
:1001C000FC0194810280F381E02D8081892B808362
:1001D0000895FC0194810280F381E02D8081282F15
:1001E00030E0892F90E0809590958223932380833F
:1001F0000895CF93DF9300D000D000D0CDB7DEB705
:10020000A4E6B0E09A01AB010E949E0469837A8360
:100210008B839C831E821D828D819E8149815A81A0
:100220006B817C81092E000CAA0BBB0B4817590768
:100230006A077B0730F08D819E8101969E838D83B6
:10024000EBCF26960FB6F894DEBF0FBECDBFDF9181
:10025000CF9108950C94BE040C94BE040C945305E5
:100260000C945305AF92BF92CF92DF92EF92FF9220
:100270000F931F93CF93DF9300D000D0CDB7DEB79D
:100280005C01672B21F4FC011182108205C08FEF05
:100290009FEFF501918380838AE090E029833A8380
:1002A0004B835C830E942A016C01B8010E94B60254
:1002B000F501D382C2828AE090E00E942A018C017B
:1002C000B7010E94B602F501158304836081718134
:1002D0008EEA91E00E944C02F501E480F5800281F3
:1002E00013816081718129813A814B815C818EEA21
:1002F00091E00E944D020F900F900F900F90DF91B0
:10030000CF911F910F91FF90EF90DF90CF90BF9012
:10031000AF9008950F931F93CF93DF938C01FC014F
:10032000C281D381209731F0CE010E94C902CE0153
:100330000E942E01F801C481D581209751F0CE0191
:100340000E94C902CE01DF91CF911F910F910C94B1
:100350002E01DF91CF911F910F9108950F931F935D
:10036000CF93DF938C01EB01FC01828193810E948A
:100370003E03892BC1F46C2FF801828193810E9486
:10038000CE02CA30D10531F46DE0F801828193814B
:100390000E94CE02F801608171818EEA91E00E9494
:1003A0008002CE0102C08FEF9FEFDF91CF911F91AE
:1003B0000F910895CF92DF92EF92FF920F931F93C8
:1003C000CF93DF937C016B018B01E801F8019191E0
:1003D0008F01992341F0692F990F770BC7010E9474
:1003E000AE0197FFF2CF6AE070E0C7010E94AE0154
:1003F000CE018C199D090196DF91CF911F910F912C
:10040000FF90EF90DF90CF900895CF93DF93EC01B2
:100410008C819D810E943E03892B31F46881798112
:100420008EEA91E00E94A6028C819D810E94330396
:10043000892B31F48C819D810E94050390E002C0DC
:100440008FEF9FEFDF91CF910895EF92FF920F937F
:100450001F93CF93DF9300D0CDB7DEB78C017B0124
:10046000C80169837A830E94050269817A81F70154
:100470008A30910529F097FD03C081937F01F0CF69
:100480001082CB010F900F90DF91CF911F910F91B0
:10049000FF90EF90089508950895EF92FF920F93C3
:1004A0001F93FC01660F771FDB01AC54BE4F0D9309
:1004B0001C93DB01A055BE4FED92FC92A0ECB0E086
:1004C000B183A08315961C92A081B18187E6149612
:1004D0008C93A081B18188E111968C930190F08179
:1004E000E02D86E082831F910F91FF90EF90089599
:1004F000DC01ED91FC91808185FFFDCF668308953D
:100500000F931F93CF93DF938C01EB01CC0FDD1F73
:10051000CC54DE4F888199810E943303892B49F4A2
:10052000888199810E940503682FC8010E94780282
:10053000F1CFDF91CF911F910F910895DC01ED91E3
:10054000FC91808187FFFDCF86810895CF93DF9353
:10055000EB010E949E02CC0FDD1FC055DE4F682FBD
:1005600088819981DF91CF910C94CE02CF93DF9354
:10057000EC01CB017B836A830E942C0199838883E1
:100580001D821C821F821E8219861886DF91CF91E0
:100590000895FC01808191810C942E01FC018085DD
:1005A0009185009769F4A081B1816C9380859185D4
:1005B000019691878087158214821782168208958A
:1005C0002281338182179307F9F086819781019602
:1005D00097838683A081B181A90141505109841775
:1005E000950719F4A80FB91F09C08217930714F0D3
:1005F0001782168226813781A20FB31F6C938085E4
:1006000091850196918780870895FC018085918569
:10061000892BC9F0A081B18184819581A80FB91F70
:100620008C911C9224813581428153814150510922
:100630002417350719F41582148206C02F5F3F4F27
:100640003583248301C080E2208531852150310922
:1006500031872087232B31F415821482178216826A
:1006600011861086089521E030E0FC018085918597
:10067000892B11F020E030E0C9010895FC0181E0F0
:1006800090E040855185228133814217530711F054
:1006900080E090E00895AF92BF92CF92DF92EF9208
:1006A000FF920F931F93CF93DF938C018BE590E024
:1006B0000E9401069BE5E92E91E0F92EC0E0D0E012
:1006C00024E6C22E21E0D22E3DE5A32E31E0B32E4A
:1006D000D80112962D913C911397C217D307A4F518
:1006E000D801ED91FC91EC0FFD1F9081492F50E056
:1006F000215031092C173D0721F480E9E82E81E0D3
:10070000F82EF7018081282F082E000C330B452B83
:1007100079F03F938F931F929F93BF92AF920E9465
:10072000EB050F900F900F900F900F900F900AC055
:100730003F938F93DF92CF920E94EB050F900F9023
:100740000F900F902196C4CF8DE590E0DF91CF916F
:100750001F910F91FF90EF90DF90CF90BF90AF90DF
:100760000C940106CF93DF93EC018D818F938C81E4
:100770008F938AE691E09F938F930E94EB058F8180
:100780008F938E818F9387E791E09F938F930E9441
:10079000EB0589858F9388858F9383E891E09F93FC
:1007A0008F930E94EB058DB79EB70C960FB6F89409
:1007B0009EBF0FBE8DBFCE01DF91CF910C944B0336
:1007C000FC0182E0848384E0858388E0868380E185
:1007D000878380E280878CE490E09383828384E245
:1007E00090E0918380830895FC01A081B1819C9168
:1007F0009E629C930280F381E02D81E580830895C1
:10080000DC011296ED91FC911397628308956115B6
:10081000710521F06130710531F00895DC01ED9131
:10082000FC9111820895DC01ED91FC91818184603D
:1008300081830895DC01ED91FC91119720E12083E3
:100840001296ED91FC91139786E080830895DC0168
:100850001296ED91FC9113978181877009F4FFCF77
:10086000828108950895FC01828193810895FC019D
:10087000808191810895FC0183E490E091838083DD
:100880008BE390E09383828381E490E0958384837B
:10089000A3E0B0E0B783A68388E815968C9308950B
:1008A000FC01808191810895FC01828193810895EA
:1008B000FC01848195810895FC01868197810895CA
:1008C00085EA91E00E94F40366E571E082E991E037
:1008D0000E94DA010E946100FDCFEF92FF920F9318
:1008E0001F9385EA91E00E94E0038DE991E00E9468
:1008F0003B0424E045E250E064E270E088E991E0E6
:100900000E94CA0088E7E82EF12C08E710E020E8F2
:1009100035E240E050E060E070E082E991E00E9462
:1009200032011F910F91FF90EF90089582E991E0BD
:100930000C948A018EEA91E00C944B020E94AF0461
:10094000A59F900DB49F900DA49F800D911D112423
:100950000895EE0FFF1F0590F491E02D0994A29FDA
:10096000B001B39FC001A39F700D811D1124911D83
:10097000B29F700D811D1124911D0895CF93DF93B7
:100980008230910510F482E090E0E091BA01F0919C
:10099000BB0120E030E0C0E0D0E0309711F14081B1
:1009A000518148175907C0F04817590761F48281EF
:1009B0009381209719F09B838A832BC09093BB016E
:1009C0008093BA0126C02115310519F0421753074B
:1009D00018F49A01BE01DF01EF010280F381E02DDE
:1009E000DCCF2115310509F1281B390B24303105E5
:1009F00090F412968D919C9113976115710521F0D9
:100A0000FB019383828304C09093BB018093BA015E
:100A1000FD01329644C0FD01E20FF31F81939193D3
:100A2000225031092D933C933AC02091B801309166
:100A3000B901232B41F4209102013091030130933D
:100A4000B9012093B80120910001309101012115D5
:100A5000310541F42DB73EB7409104015091050195
:100A6000241B350BE091B801F091B901E217F307AF
:100A7000A0F42E1B3F0B2817390778F0AC014E5F0E
:100A80005F4F2417350748F04E0F5F1F5093B90191
:100A90004093B8018193919302C0E0E0F0E0CF0170
:100AA000DF91CF9108950F931F93CF93DF9300971A
:100AB00009F48CC0FC013297138212820091BA01B2
:100AC0001091BB010115110581F420813181820F44
:100AD000931F2091B8013091B9012817390779F592
:100AE000F093B901E093B80171C0D80140E050E043
:100AF000AE17BF0750F412962D913C911397AD019C
:100B00002115310509F1D901F3CF9D01DA013383B4
:100B1000228360817181860F971F8217930769F482
:100B2000EC0128813981260F371F2E5F3F4F31831B
:100B300020838A819B8193838283452B29F4F093C0
:100B4000BB01E093BA0142C01396FC93EE93129757
:100B5000ED01499159919E01240F351FE217F307CA
:100B600071F480819181840F951F029611969C9358
:100B70008E938281938113969C938E931297E0E0DB
:100B8000F0E0D80112968D919C911397009719F07F
:100B9000F8018C01F6CF8D919C9198012E5F3F4F0B
:100BA000820F931F2091B8013091B901281739079E
:100BB00069F4309729F41092BB011092BA0102C077
:100BC000138212821093B9010093B801DF91CF9183
:100BD0001F910F910895A0E0B0E0E1EFF5E00C94D3
:100BE000B908AE014B5F5F4FFA0161917191AF019E
:100BF0008091BE019091BF010E942B06E2E00C940F
:100C0000D5086091BE017091BF010E94130808953C
:100C1000AEE0B0E0EEE0F6E00C94B7080D891E8976
:100C200086E08C831A8309838FEF9FE79E838D83F1
:100C3000AE01475E5F4F6F89788DCE0101960E94AD
:100C40002B062F813885F801E20FF31F10822E96B4
:100C5000E4E00C94D308ACE0B0E0E1E3F6E00C94FF
:100C6000A9087C016B018A01FC011782168283812D
:100C700081FFBDC1CE0101964C01F7019381F601C0
:100C800093FD859193FF81916F01882309F4ABC196
:100C9000853239F493FD859193FF81916F018532FF
:100CA00029F4B70190E00E941308E7CF512C312CB2
:100CB00020E02032A0F48B3269F030F4803259F019
:100CC000833269F420612CC08D3239F0803339F4DD
:100CD000216026C02260246023C0286021C027FD37
:100CE00027C030ED380F3A3078F426FF06C0FAE01E
:100CF0005F9E300D1124532E13C08AE0389E300DB4
:100D00001124332E20620CC08E3221F426FD6BC1DB
:100D1000206406C08C3611F4206802C0883641F485
:100D2000F60193FD859193FF81916F018111C1CFF0
:100D3000982F9F7D9554933028F40C5F1F4FFFE34D
:100D4000F9830DC0833631F0833771F0833509F0B4
:100D50005BC022C0F801808189830E5F1F4F44244D
:100D60004394512C540115C03801F2E06F0E711CF0
:100D7000F801A080B18026FF03C0652D70E002C09D
:100D80006FEF7FEFC5012C870E9408082C018301BB
:100D90002C852F77222E17C03801F2E06F0E711CC0
:100DA000F801A080B18026FF03C0652D70E002C06D
:100DB0006FEF7FEFC5012C870E94FD072C012C856A
:100DC0002068222E830123FC1BC0832D90E048164F
:100DD0005906B0F4B70180E290E00E9413083A94FB
:100DE000F4CFF50127FC859127FE81915F01B701C2
:100DF00090E00E94130831103A94F1E04F1A510824
:100E00004114510471F7E5C0843611F0893639F583
:100E1000F80127FF07C060817181828193810C5F97
:100E20001F4F08C060817181072E000C880B990B41
:100E30000E5F1F4F2F76722E97FF09C090958095F9
:100E4000709561957F4F8F4F9F4F2068722E2AE0DB
:100E500030E0A4010E944B08A82EA81844C0853792
:100E600029F42F7EB22E2AE030E025C0F22FF97F40
:100E7000BF2E8F36C1F018F4883579F0B4C08037B2
:100E800019F0883721F0AFC02F2F2061B22EB4FEA9
:100E90000DC08B2D8460B82E09C024FF0AC09F2F7F
:100EA0009660B92E06C028E030E005C020E130E0B1
:100EB00002C020E132E0F801B7FE07C06081718115
:100EC000828193810C5F1F4F06C06081718180E039
:100ED00090E00E5F1F4FA4010E944B08A82EA81897
:100EE000FB2DFF777F2E76FE0BC0372D3E7FA5149E
:100EF00050F474FE0AC072FC08C0372D3E7E05C057
:100F0000BA2C372D03C0BA2C01C0B52C34FF0DC04C
:100F1000FE01EA0DF11D8081803311F4397E09C094
:100F200032FF06C0B394B39404C0832F867809F0CF
:100F3000B39433FD13C030FF06C05A2CB31418F419
:100F4000530C5B18B32CB31468F4B70180E290E043
:100F50003C870E941308B3943C85F5CFB31410F47A
:100F60003B1801C0312C34FF12C0B70180E390E080
:100F70003C870E9413083C8532FF17C031FD03C037
:100F800088E790E002C088E590E0B7010CC0832FAD
:100F9000867859F031FF02C08BE201C080E237FD54
:100FA0008DE2B70190E00E941308A51438F4B70150
:100FB00080E390E00E9413085A94F7CFAA94F401BA
:100FC000EA0DF11D8081B70190E00E941308A11085
:100FD000F5CF332009F451CEB70180E290E00E94B2
:100FE00013083A94F6CFF7018681978102C08FEFFC
:100FF0009FEF2C96E2E10C94C508FC01059061502E
:1010000070400110D8F7809590958E0F9F1F08951E
:10101000FC016150704001900110D8F780959095C7
:101020008E0F9F1F08950F931F93CF93DF93FB01A4
:10103000238121FD03C08FEF9FEF28C022FF16C040
:1010400046815781248135814217530744F4A0819A
:10105000B1819D012F5F3F4F318320838C93268187
:1010600037812F5F3F4F3783268310C0EB01092F55
:10107000182F0084F185E02D0995892BE1F68E81EA
:101080009F8101969F838E83812F902FDF91CF9137
:101090001F910F910895FA01AA27283051F12031AC
:1010A00081F1E8946F936E7F6E5F7F4F8F4F9F4FFC
:1010B000AF4FB1E03ED0B4E03CD0670F781F891F3E
:1010C0009A1FA11D680F791F8A1F911DA11D6A0F0C
:1010D000711D811D911DA11D20D009F468943F91BF
:1010E0002AE0269F11243019305D3193DEF6CF01BE
:1010F0000895462F4770405D4193B3E00FD0C9F784
:10110000F6CF462F4F70405D4A3318F0495D31FDF0
:101110004052419302D0A9F7EACFB4E0A695979543
:10112000879577956795BA95C9F700976105710519
:1011300008959B01AC010A2E069457954795379563
:101140002795BA95C9F7620F731F841F951FA01DBD
:1011500008952F923F924F925F926F927F928F925B
:101160009F92AF92BF92CF92DF92EF92FF920F9336
:101170001F93CF93DF93CDB7DEB7CA1BDB0B0FB640
:10118000F894DEBF0FBECDBF09942A8839884888FD
:101190005F846E847D848C849B84AA84B984C88493
:1011A000DF80EE80FD800C811B81AA81B981CE0F8A
:1011B000D11D0FB6F894DEBF0FBECDBFED0108956F
:1011C00010E0C6E3D0E004C0FE010E94A90421960D
:0A11D000C733D107C9F7F894FFCF29
:1011DA000000C20120004573746520657320656CA8
:1011EA0020636F6E74656E69646F2064656C20722B
:1011FA006567697374726F206464725F73706920C3
:10120A00257820004573746520657320656C20631A
:10121A006F6E74656E69646F206465205350435223
:10122A00203A20257800486F6C61002C0020256444
:10123A00202563002023202563000A4845414420D5
:10124A003A202564200A005441494C203A2025645A
:10125A00200A00434F554E54203A202564200A0A9A
:02126A00000082
:00000001FF
