:100000000C9461000C943D0F0C94840F0C949000A0
:100010000C94B7100C9490000C9490000C949000E9
:100020000C9490000C9490000C9490000C94900010
:100030000C9490000C9490000C9490000C94900000
:100040000C94DD0D0C9490000C9490000C94900096
:100050000C9490000C9490000C9490000C949000E0
:100060000C9490000C9490000C9490000C949000D0
:100070000C9490000C9490000C9490000C949000C0
:100080000C9490000C9490000C949000F1130A14BE
:10009000B713F813B713B713B713B713B713B713CF
:1000A000B713DC13B713B713B713D513B713B713BD
:1000B000EA13B713B713B713E3130514E415661661
:1000C0008A1611241FBECFEFD0E4DEBFCDBF11E0F2
:1000D000A0E0B1E0E4EBF3E300E00BBF02C0079067
:1000E0000D92A234B107D9F727E0A2E4B1E001C034
:1000F0001D92A93CB207E1F710E0C0ECD0E000E0AF
:1001000006C022970109FE010BBF0E94CA16CC3B14
:10011000D10780E00807A9F70E94E8150C94C819D8
:100120000C940000FC010396928381832FEF3FEF34
:1001300034832383968385839087878310820895F1
:10014000FC01118610860895CF93DF939C01FB017B
:10015000DC011196CD91DC911297D383C2838C81FF
:100160009D81958384838C819D81DC0113967C9392
:100170006E9312977D836C8331872087F90180818C
:100180008F5F8083DF91CF9108950F931F93CF935B
:10019000DF938C01FB01208131812F3F8FEF3807E6
:1001A00021F4E801AF81B8850EC0D80113961296EC
:1001B0008D919C911397EC01488159812417350743
:1001C00010F0DC01F4CF12968D919C9113979383DC
:1001D0008283EC01FD83EC83B583A4831396FC93A7
:1001E000EE93129711870087F80180818F5F8083DB
:1001F000DF91CF911F910F910895CF93DF93FC0171
:10020000A085B1858281938124813581EC013D8374
:100210002C83C481D5819B838A8311968D919C9177
:1002200012978E179F0721F41296DC93CE931197A5
:10023000118610868C9181508C93DF91CF91089517
:100240000F931F93CF93DF93EC01042F1A8D4C8DE6
:100250004423B1F150E0011115C08C819D810E94B1
:10026000BF192C8D8C819D81820F911D9D838C8364
:100270002A813B818217930718F1888199819D8398
:100280008C831EC08E819F810E94BF192C8D30E00F
:100290003195219531098E819F81820F931F9F8314
:1002A0008E83688179818617970730F48A819B81D4
:1002B000820F931F9F838E83023011F4111111500E
:1002C0001F5F1A8F80E0DF91CF911F910F910895EA
:1002D000FC01CB01448D4423A1F050E026813781FD
:1002E000240F351F378326836281738126173707D2
:1002F00020F02081318137832683668177810C94B9
:10030000BF190895FF920F931F93CF93DF93EC01D2
:100310000FB6F8940F92FE8C8C010F5E1F4F1F14C6
:100320005CF48989882341F0C8010E943909811150
:100330000E94EA09FA94F3CF8FEF8E8F0F900FBED1
:100340000FB6F8940F92FD8C8E01085F1F4F1F149B
:100350005CF48885882341F0C8010E943909811125
:100360000E94EA09FA94F3CF8FEF8D8F0F900FBEA2
:10037000DF91CF911F910F91FF900895CF93DF935D
:10038000EC010FB6F8940F92288139818B8D7C8D0A
:10039000879FC0011124A901480F591F5B834A831D
:1003A0001A8E3D832C83871B9109820F931F9F8395
:1003B0008E838FEF8D8F8E8F61110CC0888588237F
:1003C00089F0CE0108960E943909882359F00E94CD
:1003D000290D08C0CE0108960E949200CE014196D8
:1003E0000E9492000F900FBE81E0DF91CF9108959F
:1003F000EF92FF921F93CF93DF931F92CDB7DEB79B
:10040000182F662321F0869FC001112402C080E0CE
:1004100090E04F9669830E94420C7C0169810097AD
:1004200099F0611104C0FC019183808306C09C0196
:10043000215E3F4FFC0131832083F701138F648FCE
:1004400061E0C7010E94BE01C7010F90DF91CF910B
:100450001F91FF90EF900895BF92CF92DF92EF929D
:10046000FF920F931F93CF93DF9300D000D01F9282
:10047000CDB7DEB78C016B015D834C83B22E20E0DB
:100480007C0188E0E80EF11C0FB6F8940F92F80199
:10049000928D838D981718F0F2E0BF1214C04B2D87
:1004A000B601C8010E942001F8019189992321F029
:1004B000C80141960E94390981110E94290D0F90AF
:1004C0000FBE81E051C08C819D81892B19F40F9062
:1004D0000FBE49C0211104C0CE0101960E94AD0992
:1004E0000F900FBE0E94C0060FB6F8940F92F8014D
:1004F000858D8F3F09F4158EF801868D8F3F09F4A5
:10050000168E0F900FBEBE016C5F7F4FCE0101961D
:100510000E94B809811122C00FB6F8940F92F80119
:10052000928D0F900FBEF801838D981311C06C81CE
:100530007D81C7010E941009C8010E9482010E94AA
:100540009307882311F021E09FCF0E94290DFBCF54
:10055000C8010E9482010E949307F5CFC8010E9442
:1005600082010E94930780E00F900F900F900F90F0
:100570000F90DF91CF911F910F91FF90EF90DF903F
:10058000CF90BF900895FF920F931F93CF93DF9367
:10059000EC018A019A8D8B8D981710F02230E1F4CE
:1005A000FE8C422FCE010E9420018FEFF81210C066
:1005B0008989882379F0CE0141960E9439098823E0
:1005C00049F00115110531F081E0F801808305C083
:1005D000F394FE8E81E001C080E0DF91CF911F9106
:1005E0000F91FF900895CF93DF93FC01EB01928D63
:1005F000838D9817B8F4868D9F5F928F8F3F71F42B
:100600008189882369F0CF0141960E9439098823A6
:1006100039F0209729F081E0888305C08F5F868FAD
:1006200081E001C080E0DF91CF910895AF92BF9249
:10063000CF92DF92EF92FF920F931F93CF93DF93AE
:1006400000D000D01F92CDB7DEB78C016B015D8367
:100650004C83A22E30E07C0181E1E80EF11C0FB644
:10066000F8940F92F801B28CBB2021F1E680F7805C
:10067000B601C8010E946801A1100FC0BA94F80128
:10068000B28E8085882391F0C80108960E943909AE
:10069000882361F00E94290D09C0F801F782E682E3
:1006A0008189882319F0C8014196F0CF0F900FBEC1
:1006B00081E058C08C819D81892B21F40F900FBE61
:1006C00080E050C0311104C0CE0101960E94AD09F6
:1006D0000F900FBE0E94C0060FB6F8940F92F8015B
:1006E000858D8F3F09F4158EF801868D8F3F09F4B3
:1006F000168E0F900FBEBE016C5F7F4FCE0101962C
:100700000E94B809811120C00FB6F8940F92F80129
:10071000828D0F900FBE811111C06C817D81C70148
:100720000E941009C8010E9482010E949307882339
:1007300011F031E094CF0E94290DFBCFC8010E9437
:1007400082010E949307F5CFC8010E9482010E9496
:1007500093070FB6F8940F92F801828D0F900FBE99
:100760008111E7CF0F900F900F900F900F90DF91B6
:10077000CF911F910F91FF90EF90DF90CF90BF909E
:10078000AF900895EF92FF920F931F93CF93DF9353
:10079000EC018A01EA8CEE20E1F0FD8C0E946801F8
:1007A000EA94EA8E8FEFF81210C08885882379F0DA
:1007B000CE0108960E943909882349F001151105D8
:1007C00031F081E0F801808305C0F394FD8E81E073
:1007D00001C080E0DF91CF911F910F91FF90EF90CA
:1007E00008950F931F93CF93DF93EC018A8D882395
:1007F00049F00E811F81CE010E9468011F830E8384
:1008000081E001C080E0DF91CF911F910F910895A9
:100810000FB6F8940F92FC01828D0F900FBE0895D1
:100820000FB6F8940F92FC01228D0F900FBEFC01C1
:10083000838D821B0895FC01828D08950C94740CA5
:10084000FC01928D81E0911180E00895FC01228DE0
:1008500081E0938D291380E00895E0917001F0917B
:1008600071018081811103C08FEF9FEF0CC0E09177
:100870007001F09171010580F681E02D0680F7810D
:10088000E02D8281938190934801809347010895E0
:10089000EF92FF920F931F93CF93DF931F92CDB7E9
:1008A000DEB77C0100914F0110915001809142010F
:1008B00090914301029669830E94FD0069818FEF48
:1008C000E816F80699F4662389F060914201709168
:1008D00043016E5F7F4F82E591E00F90DF91CF91F2
:1008E0001F910F91FF90EF900C94A400E00EF11E69
:1008F000E0914201F0914301F382E2826091420172
:1009000070914301E016F10678F480916E019091A8
:100910006F016E5F7F4F0F90DF91CF911F910F910D
:10092000FF90EF900C94C50080917001909171013F
:100930006E5F7F4F0E94C5008091470190914801F2
:10094000E816F90620F4F0924801E09247010F9072
:10095000DF91CF911F910F91FF90EF9008955F92DB
:100960006F927F928F929F92AF92BF92CF92DF92BF
:10097000EF92FF920F931F93CF93DF934C01162FAB
:10098000572E5A013901CA010E94420C6C0100978E
:1009900009F4D2C086E290E00E94420CEC0100977C
:1009A00061F0D88ECF8A21E0A21AB108AC0CBD1C30
:1009B000E12FF52D80E090E008C0C6010E94740C84
:1009C000BBC001968830910561F0BF0141919E0145
:1009D000280F391FD90159964C93DB012C91211115
:1009E000F0CF18A2043008F003E00E8B6E01B2E0E5
:1009F000CB0ED11CC6010E94A000CE010C960E9415
:100A0000A000D987C88784E090E0801B91099D876A
:100A10008C87DB8BCA8B19A21AA21BA21CA21DA257
:100A2000A301B401C5010E94830C99838883E1145A
:100A3000F10419F0F701D183C0830FB6F8940F9237
:100A4000809151018F5F809351018091420190917B
:100A50004301892BD1F5D0934301C093420180918A
:100A60005101813009F041C084E891E00E94920078
:100A70008DE891E00E94920086E991E00E94920048
:100A80008FE991E00E9492008BE791E00E94920032
:100A900082E791E00E94920085E691E00E94920038
:100AA0008CE591E00E94920082E591E00E94920024
:100AB0008BE791E0909371018093700182E791E060
:100AC00090936F0180936E0110C080914D01811150
:100AD0000CC0E0914201F091430196898E898917FB
:100AE00020F0D0934301C0934201809149018F5F70
:100AF000809349018E8990914E01981710F480934C
:100B00004E01F9E08F9FC0011124B6018C579E4F12
:100B10000E94A4000F900FBE80914D01882351F0D8
:100B2000E0914201F091430196898E89981710F463
:100B30000E94290D81E001C08FEFDF91CF911F91BD
:100B40000F91FF90EF90DF90CF90BF90AF909F906C
:100B50008F907F906F905F9008950F931F93CF9326
:100B6000DF93EC010FB6F8940F92009721F4C09137
:100B70004201D09143018E010E5F1F4FC8010E94B8
:100B8000FD008C899D89892B21F0CE010C960E9455
:100B9000FD00809149018F5F80934901809142015E
:100BA00090914301C817D90759F4B8018CE591E039
:100BB0000E94A40080915B018F5F80935B010EC057
:100BC000809151018150809351018F89988D0E94AD
:100BD000740CCE010E94740C0E942D040F900FBE65
:100BE00080914D01882349F0809142019091430109
:100BF000C817D90711F40E94290DDF91CF911F91D9
:100C00000F9108950F931F93CF93DF93EC010097FB
:100C100009F439C08091420190914301C817D90766
:100C200091F10FB6F8940F928A859B858255914079
:100C300041F58C899D8921E08536920711F1892B38
:100C400001F58E010E5F1F4FC8010E94FD008E89C5
:100C500090914E01981710F480934E0129E0829FE5
:100C6000C0011124B8018C579E4F0E94A400E0914E
:100C70004201F09143019E898689981710F00E94E5
:100C8000290D0F900FBEDF91CF911F910F91089505
:100C9000FF920F931F93CF93DF93EC018A859B857F
:100CA00082559140A9F58C899D8931E0853693075D
:100CB00079F1892B69F580914401811122C0E0917D
:100CC0004201F0914301FF24F3949E89868998178D
:100CD00008F4F12C8E010E5F1F4FC8010E94FD0029
:100CE0002E8980914E01821710F420934E0139E035
:100CF000239FC0011124B8018C579E4F0E94A4006D
:100D000008C0BE01645F7F4F85E691E00E94A400A9
:100D1000F12C8F2DDF91CF911F910F91FF900895AE
:100D2000EF92FF920F9385E4E82E81E0F82E00E029
:100D300020E030E045E550E066E071E084E598E0D1
:100D40000E94AF04813099F4F8948FEF9FEF909355
:100D500048018093470181E080934D01109250013A
:100D600010924F010F91FF90EF900C94EF0C0F91A8
:100D7000FF90EF900895F89410924D010C94280D77
:100D8000809144018F5F8093440108950FB6F894D9
:100D90000F9280914F01909150010F900FBE0895D6
:100DA00080914F01909150010895809151010895D3
:100DB000009721F480914201909143014996089552
:100DC000CF92DF92EF92FF920F931F93CF93DF9317
:100DD00080914401811191C0C0914F01D091500187
:100DE0002196D0935001C0934F012097B9F4809180
:100DF00070019091710120916E0130916F013093DB
:100E000071012093700190936F0180936E01809126
:100E10004A018F5F80934A010E942D04809147010F
:100E200090914801D12CC817D90708F455C099E012
:100E3000C92EE0917001F09171018081811107C08C
:100E40008FEF9FEF909348018093470145C0E09159
:100E50007001F09171010580F681E02D0681178106
:100E6000D80112962D913C911397C217D30728F4FD
:100E700030934801209347012FC07801B2E0EB0E78
:100E8000F11CC7010E94FD00F80124893589232B3C
:100E900021F0C8010C960E94FD00D80156962C91B5
:100EA00080914E01821710F420934E01C29EC00122
:100EB0001124B7018C579E4F0E94A400E09142017B
:100EC000F0914301D80156969C918689981708F4B1
:100ED000B0CFDD24D394ADCFE0914201F091430136
:100EE000E689B9E0EB9FF0011124EC57FE4F8081B9
:100EF000823048F0DD24D39406C080914C018F5F8E
:100F000080934C01D12C80914B01882311F0DD247A
:100F1000D3948D2DDF91CF911F910F91FF90EF9082
:100F2000DF90CF900895EF92FF920F931F93CF938E
:100F3000DF930FB6F8940F92809144018150809313
:100F4000440180914401882311F080E052C08091D7
:100F500051018823D1F3C0E0D0E029E0F22EEE2445
:100F6000E39480916501882351F1E0916A01F09149
:100F70006B01C681D781CE010C960E94FD008E01C7
:100F80000E5F1F4FC8010E94FD008E8990914E0197
:100F9000981710F480934E01F89EC0011124B801F7
:100FA0008C579E4F0E94A400E0914201F0914301B2
:100FB0009E8986899817A8F2E0924B01D2CFCD2B5B
:100FC00011F00E942D04C0914C01CC2351F0D1E0CE
:100FD0000E94E0068111D0934B01C150C9F71092D5
:100FE0004C0180914B01882309F4AFCF0E94290D59
:100FF00081E00F900FBEDF91CF911F910F91FF9075
:10100000EF9008950F931F93CF93DF93EC018B0123
:101010000E94C00640914F0150915001E881F98132
:101020009F01200F311F4E175F0728F42E173F072F
:1010300048F481E004C081E02E173F0720F04217FA
:10104000530708F080E039832883882331F060E07B
:10105000C901841B950B0E9448040E9493078111CB
:1010600002C00E94290DDF91CF911F910F91089529
:10107000CF93DF9300D0CDB7DEB7009719F40E946D
:10108000290D0DC089839A830E94C00660E0898182
:101090009A810E9448040E949307882381F30F904D
:1010A0000F90DF91CF91089580915B01882349F1E2
:1010B0000E94C006C0915C010E949307CC23A1F35B
:1010C0000FB6F8940F92E0916101F0916201C68130
:1010D000D781CE0102960E94FD008091510181507E
:1010E0008093510180915B01815080935B010F904F
:1010F0000FBE8F89988D0E94740CCE010E94740CD3
:10110000D3CF80918401823078F20E94290DCCCF18
:1011100080914401882321F081E080934B01089560
:1011200010924B0120914E0199E0929FF001112401
:10113000EC57FE4F8081811102C02150F6CFA18172
:10114000B28112960D90BC91A02DB283A183CF01E4
:101150000396A817B90731F412968D919C911397B5
:10116000928381830180F281E02D86819781909323
:1011700043018093420120934E0108950F931F93E2
:10118000CF93DF93EC010FB6F8940F92009721F400
:10119000C0914201D09143018E010E5F1F4FC801E3
:1011A0000E94FD008C899D89892B21F0CE010C962F
:1011B0000E94FD00B80182E591E00E94A4000F901A
:1011C0000FBE80914D01882339F00FB6F8940F922D
:1011D0000E942D040F900FBE809142019091430117
:1011E000C817D907C1F480914D01882319F00E94D6
:1011F000290D11C08091510190915201981305C0A1
:10120000109243011092420106C0DF91CF911F91CD
:101210000F910C948808DF91CF911F910F91089541
:10122000CF93DF93EB016091420170914301645FC2
:101230007F4F0E94C50061E0CE01DF91CF910C94F9
:101240004804CF93DF93EA01E0914201F09143011A
:101250007068758764876091420170914301645F93
:101260007F4F0E94A40061E0CE01DF91CF910C94EA
:1012700048040F931F93CF93DF93DC011596ED91F4
:10128000FC911697C681D7818E01045F1F4FC8015C
:101290000E94FD0080914401811114C00A5011097F
:1012A000C8010E94FD008E8990914E01981710F49C
:1012B00080934E01B9E08B9FC0011124B8018C5777
:1012C0009E4F03C0B80185E691E00E94A400E09122
:1012D0004201F09143019E898689891720F481E0BB
:1012E00080934B0101C080E0DF91CF911F910F915E
:1012F00008950F931F93CF93DF937068FC01718360
:101300006083C681D7810E94FD008E010E5F1F4F52
:10131000C8010E94FD008E8990914E01981710F42B
:1013200080934E01F9E08F9FC0011124B8018C57C2
:101330009E4F0E94A400E0914201F09143019E89DA
:101340008689891720F481E080934B0101C080E0F9
:10135000DF91CF911F910F91089520914A01FC01D7
:10136000208320914F0130915001328321830895D1
:10137000CF93DF930FB6F8940F92E0914F01F09165
:101380005001DB014D915C914F3FBFEF5B07D1F006
:10139000B0914A01EC01A88129813A81BA1719F06C
:1013A000E217F30788F4DF01A21BB30BA417B507FC
:1013B00058F42E1B3F0B240F351FFB013183208374
:1013C0000E94AD0980E001C081E00F900FBEDF9167
:1013D000CF91089581E080934B010895E0914201FF
:1013E000F091430184859585E0914201F09143019C
:1013F000A0914201B091430156964C9124E030E017
:10140000241B31093587248708950F931F93182FC4
:10141000CB010FB6F8940F92E0914201F091430195
:1014200041A152A163A174A1452B462B472B69F41E
:10143000E0914201F091430121E025A3009729F0BA
:1014400061E00E9448040E94290D0F900FBE0FB664
:10145000F8940F92E0914201F091430161A172A1D1
:1014600083A194A16115710581059105A9F0E09111
:101470004201F0914301112329F011A212A213A2FB
:1014800014A20AC08B019C010150110921093109E4
:1014900001A312A323A334A3E0914201F0914301DD
:1014A00015A20F900FBE1F910F9108958F929F92DA
:1014B000AF92BF92CF92DF92EF92FF920F931F9362
:1014C000CF93DF9300D000D0CDB7DEB7D7010FB6F2
:1014D000F8940F92E0914201F0914301E5A1E230CE
:1014E00061F1E0914201F0914301C1A0D2A0E3A0DB
:1014F000F4A04B015C0180949094A094B0948C2053
:101500009D20AE20BF2081A292A2A3A2B4A2E0910E
:101510004201F091430181E085A3109771F061E0F1
:10152000CD0129833A834B835C830E9448040E9447
:10153000290D5C814B813A8129810F900FBE0FB636
:10154000F8940F920115110569F0E0914201F091B4
:10155000430181A192A1A3A1B4A1F8018083918349
:10156000A283B383E0914201F091430185A18130D0
:10157000C1F0E0914201F0914301C1A0D2A0E3A0EB
:10158000F4A0DA01C90180959095A095B0958C21C1
:101590009D21AE21BF2181A392A3A3A3B4A381E087
:1015A00001C080E0E0914201F091430115A20F904B
:1015B0000FBE0F900F900F900F90DF91CF911F9162
:1015C0000F91FF90EF90DF90CF90BF90AF909F90E2
:1015D0008F900895CF92DF92EF92FF920F931F9317
:1015E000CF93DF93EC010FB6F8940F92011511051C
:1015F00049F0C9A0DAA0EBA0FCA0F801C082D1821A
:10160000E282F3828DA192E09DA322303105C1F0E8
:1016100080F42130310519F509A11AA12BA13CA1B3
:10162000042B152B262B372B09A31AA32BA33CA382
:1016300016C02330310579F02430310551F00FC048
:1016400049A15AA16BA17CA14F5F5F4F6F4F7F4FA4
:1016500002C0823041F149A35AA36BA37CA381301D
:1016600001F58E010E5F1F4FC8010E94FD008E899B
:1016700090914E01981710F480934E01F9E08F9FDE
:10168000C0011124B8018C579E4F0E94A400E09124
:101690004201F09143019E898689891710F40E94C6
:1016A000290D81E001C080E00F900FBEDF91CF9146
:1016B0001F910F91FF90EF90DF90CF900895EF92E0
:1016C000FF920F931F93CF93DF93EC010115110548
:1016D00049F089A19AA1ABA1BCA1F80180839183B3
:1016E000A283B383EDA182E08DA322303105A1F066
:1016F00060F42130310511F589A19AA1ABA1BCA1FB
:10170000842B952BA62BB72B0EC02330310591F0DF
:101710002430310569F012C089A19AA1ABA1BCA106
:101720000196A11DB11D89A39AA3ABA3BCA306C0BA
:10173000E230D1F149A35AA36BA37CA3E13011F0AD
:1017400081E033C080914401811115C08E010E5F8C
:101750001F4FC8010E94FD008E8990914E0198177D
:1017600010F480934E01F9E08F9FC0011124B8015D
:101770008C579E4F05C0BE01645F7F4F85E691E0A8
:101780000E94A400E0914201F09143019E89868964
:101790008917B0F681E0E114F10419F0F7018083B4
:1017A00004C080934B0101C080E0DF91CF911F9175
:1017B0000F91FF90EF900895EF92FF920F931F9378
:1017C000CF93DF93EC018B018DA192E09DA349A102
:1017D0005AA16BA17CA14F5F5F4F6F4F7F4F49A311
:1017E0005AA36BA37CA3813091F5809144018111B0
:1017F00016C07E0122E0E20EF11CC7010E94FD002E
:101800008E8990914E01981710F480934E01E9E073
:101810008E9FC0011124B7018C579E4F05C0BE0199
:10182000645F7F4F85E691E00E94A400E091420151
:10183000F09143019E898689891748F481E001155A
:10184000110519F0F801808302C080934B01DF91EC
:10185000CF911F910F91FF90EF900895009721F481
:1018600080914201909143010FB6F8940F92FC01D0
:1018700025A1223019F415A281E001C080E00F906B
:101880000FBE0895CF93DF93EC010E94C0068091B4
:10189000A8019091A901892B31F48DEA91E09093F0
:1018A000A9018093A8012091AA013091AB01CE013A
:1018B000820F931F8B3D45E0940770F4281739077A
:1018C00058F4C091A801D091A901C20FD31F9093E1
:1018D000AB018093AA0102C0C0E0D0E00E94930750
:1018E000CE01DF91CF91089508951092AB0110922F
:1018F000AA0108952091AA013091AB018BED95E0EA
:10190000821B930B089531E1FC013083319722E271
:1019100020833197A3E3A08331976083319770834D
:1019200031971082319760E8608331971082319748
:1019300062E06083319763E06083319764E06083A5
:10194000319765E06083319766E06083319767E0A7
:101950006083319768E06083319769E060833197F5
:1019600060E1608331973083319732E13083319782
:1019700033E13083319734E13083319735E130837F
:10198000319736E13083319737E13083319738E151
:101990003083319739E13083319730E230833197AA
:1019A00031E2308331972083319723E220833197CE
:1019B000408331975083319726E22083319727E285
:1019C0002083319728E22083319729E220833197C1
:1019D00020E32083319721E320838697089589EFC0
:1019E00087BD84B5826084BD83E085BDEEE6F0E00E
:1019F000808182608083A0914201B0914301CD91AA
:101A0000CDBFDD91DEBFFF91EF91DF91CF91BF910F
:101A1000AF919F918F917F916F915F914F913F9186
:101A20002F911F910F91FF90EF90DF90CF90BF907B
:101A3000AF909F908F907F906F905F904F903F906E
:101A40002F901F900F900FBE0F90089581E0089582
:101A500008950F920FB6F8940F921F9211242F92AF
:101A60003F924F925F926F927F928F929F92AF922E
:101A7000BF92CF92DF92EF92FF920F931F932F931B
:101A80003F934F935F936F937F938F939F93AF9306
:101A9000BF93CF93DF93EF93FF93A0914201B09157
:101AA00043010DB60D920EB60D920E948808A091CA
:101AB0004201B0914301CD91CDBFDD91DEBFFF91D9
:101AC000EF91DF91CF91BF91AF919F918F917F91D6
:101AD0006F915F914F913F912F911F910F91FF90C7
:101AE000EF90DF90CF90BF90AF909F908F907F90BE
:101AF0006F905F904F903F902F901F900F900FBE70
:101B00000F9008950F920FB6F8940F921F92112420
:101B10002F923F924F925F926F927F928F929F92FD
:101B2000AF92BF92CF92DF92EF92FF920F931F93EB
:101B30002F933F934F935F936F937F938F939F93D5
:101B4000AF93BF93CF93DF93EF93FF93A0914201A5
:101B5000B09143010DB60D920EB60D920E94E006B3
:101B60000E948808A0914201B0914301CD91CDBF60
:101B7000DD91DEBFFF91EF91DF91CF91BF91AF91EA
:101B80009F918F917F916F915F914F913F912F9195
:101B90001F910F91FF90EF90DF90CF90BF90AF908B
:101BA0009F908F907F906F905F904F903F902F907D
:101BB0001F900F900FBE0F9008950E94820D1895F0
:101BC000FC0171836083538342832483FB01808102
:101BD000822B80830895DC011296ED91FC9113977E
:101BE000208114968C91282B20830895DC01129675
:101BF000ED91FC911397208114968C918095282368
:101C000020830895DC011296ED91FC9113972081B9
:101C100014968C91282720830895CF93DF9300D0CA
:101C200000D0CDB7DEB728E233E2629FC001639FE8
:101C3000900D729F900D1124AA2797FDA095BA2FA1
:101C400089839A83AB83BC8389819A81AB81BC8170
:101C5000892B8A2B8B2B41F089819A81AB81BC81A6
:101C60000197A109B109ECCF0F900F900F900F9041
:101C7000DF91CF91089584B18F6084B98AB1806378
:101C80008AB98FEF9FEF9093870080938600109220
:101C900089001092880010928B0010928A00E0E870
:101CA000F0E08081806A8083808182608083E1E8C7
:101CB000F0E08081886180838081816080830895E5
:101CC0002898299A70938900609388002B982A9A03
:101CD00070938B0060938A000895289A29987093D6
:101CE0008900609388002B9A2A9870938B006093E8
:101CF0008A0008952898299A709389006093880033
:101D00002B9A2A9870938B0060938A000895289AE2
:101D1000299870938900609388002B982A9A709371
:101D20008B0060938A000895FC0171836083538364
:101D3000428324830895FC016115710571F4A0812B
:101D4000B1812C9181E090E0048002C0880F991F3E
:101D50000A94E2F7809582230DC06130710559F431
:101D6000A081B1818C91048002C0660F771F0A9414
:101D7000E2F7862B8C930895FC016115710571F4CF
:101D8000A281B3812C9181E090E0048002C0880F91
:101D9000991F0A94E2F7809582230DC06130710586
:101DA00059F4A281B3818C91048002C0660F771F21
:101DB0000A94E2F7862B8C930895FC01A281B381EB
:101DC0008C9121E030E0048002C0220F331F0A947E
:101DD000E2F790E0822393230895CF93DF9300D01E
:101DE00000D0CDB7DEB728E233E2629FC001639F27
:101DF000900D729F900D1124AA2797FDA095BA2FE0
:101E000089839A83AB83BC8389819A81AB81BC81AE
:101E1000892B8A2B8B2B41F089819A81AB81BC81E4
:101E20000197A109B109ECCF0F900F900F900F907F
:101E3000DF91CF9108950895FC01A9E6B0E0B18348
:101E4000A0838DE390E0938382838AE08C93028069
:101E5000F381E02D83E0808378940895DC0112966D
:101E6000ED91FC91139710820895DC011296ED918B
:101E7000FC91139783E0808308951F920F920FB611
:101E80000F9211240BB60F922F933F934F935F93B2
:101E90006F937F938F939F93AF93BF93EF93FF9332
:101EA000CF93DF9300D01F92CDB7DEB71B8281E2C4
:101EB00090E09A83898320E0AE014D5F5F4FBE01C1
:101EC0006F5F7F4F8091B8079091B9070E94C3025E
:101ED0008B8381110E94290D0F900F900F90DF913D
:101EE000CF91FF91EF91BF91AF919F918F917F9192
:101EF0006F915F914F913F912F910F900BBE0F907B
:101F00000FBE0F901F9018951F920F920FB60F9251
:101F100011240BB60F922F933F934F935F936F93C0
:101F20007F938F939F93AF93BF93EF93FF93CF9341
:101F3000DF9300D01F92CDB7DEB71B828CE290E01A
:101F40009A83898320E0AE014D5F5F4FBE016F5FD2
:101F50007F4F8091B8079091B9070E94C3028B838D
:101F600081110E94290D0F900F900F90DF91CF915A
:101F7000FF91EF91BF91AF919F918F917F916F9161
:101F80005F914F913F912F910F900BBE0F900FBE1D
:101F90000F901F9018950895FC01A1E9B0E0B5835A
:101FA000A4838BE690E09183808328E630E033833E
:101FB000228328E330E03783268321E730E031872E
:101FC000208790938B0780938A07B0938907A0930B
:101FD000880782E08C93A081B18180E28C93A281FA
:101FE000B38181E08C930084F185E02D1082089507
:101FF0000F931F93CF93DF93CDB7DEB727970FB61D
:10200000F894DEBF0FBECDBF8C0125E040E250E06A
:1020100061E270E0CE0101960E94940EF89461E0B6
:1020200070E0CE0101960E949B0E60E070E0CE0150
:1020300001960E94BC0E8AE08A95F1F700C061E02B
:1020400070E0CE0101960E94BC0EA5E3AA95F1F7BF
:10205000000060E070E0CE0101960E94BC0E60E0DE
:1020600070E0CE0101960E949B0E10928C07D80161
:10207000ED91FC91119780E280831296ED91FC9195
:10208000139781E08083789480918C078823E1F313
:1020900082E080938C0780918C078230E1F3D80135
:1020A0001696ED91FC911797808180FF15C0F894EA
:1020B000D8011696ED91FC91179781E0808380E01E
:1020C00090E0A8ECB3E480938D0790938E07A093E3
:1020D0008F07B093900738C0F894809194008F8355
:1020E000809195008E836E818F8170E0762F6627B8
:1020F000680F711D882777FD8095982F0E948117A2
:1021000020E030E040E05FE30E94351860939107E3
:10211000709392078093930790939407609191072F
:1021200070919207809193079091940720E030E09E
:1021300048E652E40E94E61660938D0770938E077E
:1021400080938F079093900760918D0770918E0711
:1021500080918F079091900727960FB6F894DEBF75
:102160000FBECDBFDF91CF911F910F9108951F92A8
:102170000F920FB60F9211240BB60F928F93EF931D
:10218000FF9380918C0781110DC0109295001092E1
:102190009400E0918807F091890782E0808381E0D4
:1021A00080938C0780918C07823071F4E0918A07CC
:1021B000F0918B0780818F7D8083E0918807F0917B
:1021C0008907108210928C07FF91EF918F910F90E9
:1021D0000BBE0F900FBE0F901F901895AF92BF923D
:1021E000CF92DF92EF92FF920F931F93CF93DF93E3
:1021F00000D000D0CDB7DEB75C01672B21F4FC0125
:102200001182108205C08FEF9FEFF50191838083CB
:102210008AE090E029833A834B835C830E94C91251
:102220006C01B8010E94D112F501D382C2828AE00A
:1022300090E00E94C9128C01B7010E94D112F501F1
:10224000158304836081718185E997E00E940F12F4
:10225000F501E480F580028113816081718129811B
:102260003A814B815C8185E997E00E9410120F90C2
:102270000F900F900F90DF91CF911F910F91FF90D2
:10228000EF90DF90CF90BF90AF9008950F931F9382
:10229000CF93DF938C01FC01C281D381209731F071
:1022A000CE010E94E412CE010E94CD12F801C48139
:1022B000D581209751F0CE010E94E412CE01DF912A
:1022C000CF911F910F910C94CD12DF91CF911F915F
:1022D0000F9108950F931F93CF93DF938C01EB0120
:1022E000FC01828193810E945B13892BC1F46C2FC6
:1022F000F801828193810E94E912CA30D10531F43C
:102300006DE0F801828193810E94E912F8016081F9
:10231000718185E997E00E946712CE0102C08FEFBC
:102320009FEFDF91CF911F910F910895CF92DF9290
:10233000EF92FF920F931F93CF93DF937C018B015A
:10234000EB016E016991662341F0772767FD709577
:10235000C7010E946A1197FFF4CF6DE070E0C701DA
:102360000E946A11C601801B910B0196DF91CF91EB
:102370001F910F91FF90EF90DF90CF900895CF9332
:10238000DF93EC018C819D810E945B13892B39F4D2
:102390006881798185E997E00E94991206C08C8155
:1023A0009D810E945013892B31F48C819D810E9464
:1023B0001A1390E002C08FEF9FEFDF91CF91089545
:1023C000EF92FF920F931F93CF93DF9300D0CDB77F
:1023D000DEB78C017B01C80169837A830E94BF113B
:1023E00069817A81F7018A30910529F097FD03C050
:1023F00081937F01F0CF1082CB010F900F90DF917E
:10240000CF911F910F91FF90EF90089585E997E08C
:102410000C94BA1285E997E00C94C11208950895BE
:10242000EF92FF920F931F93CF93DF93EC0180EC19
:1024300090E09983888386EC90E090939B0780934B
:102440009A077093980760939707660F771FFB01B1
:10245000E056F84F11830083FB01E456F84FF182F8
:10246000E082E881F98186E082830881198194E025
:10247000220F331F441F551F9A95D1F760E074E275
:1024800084EF90E00E94A2168FEF820FF801848300
:10249000E881F981DA01C9010197A109B109892F00
:1024A0009A2FAB2FBB278583E881F98188E181834F
:1024B000DF91CF911F910F91FF90EF900895DC0174
:1024C000ED91FC91808185FFFDCF668308950F9388
:1024D0001F93CF93DF938C01EB01DC01ED91FC9115
:1024E000818180628183CC0FDD1FC056D84F8881E7
:1024F00099810E945013019749F0888199810E9427
:102500001A13682FC8010E945F12F1CFD801ED9114
:10251000FC9181818F7D8183DF91CF911F910F91FC
:102520000895DC01ED91FC91808187FFFDCF8681CC
:1025300008950F931F93CF93DF938C01EB01CC0F82
:10254000DD1FC456D84F888199810E945B13019783
:1025500061F0C8010E949112682F88819981DF91F2
:10256000CF911F910F910C94E912DF91CF911F91A0
:102570000F910895E0ECF0E0DC01ED93FC93118203
:102580000895E0ECF0E0DC01ED93FC9388E18183B9
:1025900008950C9498180C9498180C9430190C9475
:1025A0003019CF93DF93EC01CB017B836A830E94C8
:1025B000CB12998388831D821C821F821E821986FA
:1025C0001886DF91CF910895FC01808191810C9450
:1025D000CD12CF93DF93FC012281338180859185D9
:1025E0002817390721F1A081B181892B59F4C481C1
:1025F000D581CA0FDB1F68838085918501969187FD
:10260000808715C0868197812150310982179307F1
:1026100021F46C9317821682EFCFA80FB91F119681
:102620006C9386819781019697838683E5CFDF91AE
:10263000CF910895FC01A081B18184819581A80F7B
:10264000B91F8C919DE29C934085518541155105A0
:1026500009F4089564817581228133812150310903
:102660006217730719F41582148204C06F5F7F4FDD
:10267000758364834150510951874087452B09F088
:102680000895158214821782168211861086089585
:10269000FC01158214821782168211861086089515
:1026A00021E030E0FC0180859185892B11F020E04C
:1026B00030E0C9010895FC0181E090E0428153813E
:1026C000208531854217530711F080E090E008958E
:1026D000DC01ED91FC91119714968D919C911597C9
:1026E000E80FF91F80810895DC01ED91FC911197AD
:1026F00016968D919C911797E80FF91F8081089588
:10270000FC01808591850895CF93DF9300D000D0A0
:102710001F92CDB7DEB720E845E250E064E270E0FA
:10272000CE0101960E94E00DCE0101960E94020E9C
:1027300088EC90E00E943808F7CFCF93DF93CDB7B5
:10274000DEB728970FB6F894DEBF0FBECDBF81E08D
:1027500090E098878F8382E090E09E838D8383E072
:1027600090E09C838B8384E090E09A83898361E08E
:1027700070E08AEB97E00E949B0E61E070E08AEBCC
:1027800097E00E94BC0E8FEB97E00E94BF118F3F35
:102790002FEF920761F3FC01E156F109E831F105F1
:1027A00030F7EA5BFF4F0C94C4168091AE0790910E
:1027B000AF070E94BE08DBCF8091AE079091AF07B4
:1027C0000E940206D4CF20E040ED57E0BE01695FD1
:1027D0007F4F14C020E040ED57E0BE016B5F7F4F9C
:1027E0000DC020E040ED57E0BE016D5F7F4F06C099
:1027F00020E040ED57E0BE016F5F7F4F8091B6074C
:102800009091B7070E942C02B2CF84EA97E00E9411
:102810002E0FADCF84EA97E00E94350FA8CFCF935B
:10282000DF93CDB7DEB768970FB6F894DEBF0FBE63
:10283000CDBFCE0101960E94CB0F85E090E0988F2E
:102840008F8B86E090E09E8B8D8BCE0101960E944F
:10285000CC0F0E94C6069C8B8B8B0AE010E086EFA3
:10286000F82E64E670E0CE0143960E940208CE0185
:1028700001960E94F80F6F87788B898B9A8B6F85F2
:10288000788989899A8920E030E0A9010E9431186D
:102890001816BCF56F85788989899A8920E030E01F
:1028A00048EC52E40E94E21687FF2BC06F857889BE
:1028B00089899A890E944E17E62FFF27E7FDF09538
:1028C000CF0164E670E00E948E16AB016CE96403F0
:1028D0009001659F300D11242E0F3F1FC901B801D3
:1028E0000E948E16405D4B8780E3860F8C87F69E94
:1028F000200D1124205D2D871E86BE01655F7F4F50
:1029000002C06BE071E08FEB97E00E9496116F853B
:10291000788989899A8920E030E040E85FEB0E945D
:10292000311818162CF56F85788989899A8920E0E5
:1029300030E048EC51E40E94E21687FF19C060E0E5
:1029400070E08AEB97E00E94BC0E61E070E08AEBD9
:1029500097E00E949B0E20E040ED57E0BE01695ECB
:102960007F4F8091B8079091B9070E942C0279CFD0
:1029700020E040ED57E0BE016B5E7F4F8091B807CD
:102980009091B9070E942C0260E070E08AEB97E01A
:102990000E949B0E66CFCF93DF9300D0CDB7DEB7FA
:1029A00084EA97E00E941C0F84EA97E00E942E0FB1
:1029B0000E94C6069A83898368EB7BE0CE0101966C
:1029C0000E940208F9CFCF93DF9300D0CDB7DEB7D6
:1029D0008FEF9FEF9A8389830FEF1FEF20E040ED89
:1029E00057E0BE016F5F7F4F8091B8079091B907A4
:1029F0000E94160389819A818930910534F48730C9
:102A000091059CF40197ECF005C08132910511F01D
:102A10008C97B9F420E040ED57E0BE016F5F7F4F27
:102A20008091B6079091B7070AC020E048EE53E0C6
:102A3000BE016F5F7F4F8091B4079091B5070E94F0
:102A40002C021A830983CACFCF93DF9300D01F9241
:102A5000CDB7DEB7CE0103960E943B0E8FEF9FEFFE
:102A60009A83898300E010E020E040ED57E0BE014A
:102A70006F5F7F4F8091B6079091B7070E94160352
:102A800089819A818430910509F467C044F48230C9
:102A90009105D1F10CF053C00197E1F090C0863060
:102AA000910509F468C00CF488C08132910509F4DD
:102AB00065C08C9709F083C0F8948FEB97E00E9473
:102AC00006126FEF7FE8CE0103960E94870E88E022
:102AD00090E06AC0F8948FEB97E00E94061201150F
:102AE000110509F06AC06FEF7FEACE0103960E94DC
:102AF000600E8EE591E00E94380860E070E0CE0143
:102B000003960E94600E15C0F8948FEB97E00E9428
:102B100006126FEF7FEFCE0103960E946D0E8EE5D9
:102B200091E00E94380860E070E0CE0103960E94B8
:102B30006D0E8FEF9FEF9A838983789440C0F8944D
:102B40008FEB97E00E9406126FEF7FEFCE010396A6
:102B50000E947A0E80E590E01EC0F8948FEB97E01B
:102B60000E9406126FEF7FEFCE0103960E94870E40
:102B700080E590E019C000E010E021C0F8948FEBF0
:102B800097E00E9406126FEF7FE8CE0103960E9445
:102B90007A0E88E090E00E94380860E070E0CE0194
:102BA00003960E947A0EC5CF0E94380860E070E05C
:102BB000CE0103960E94870EBCCF01E010E08FEBA0
:102BC00097E00E940A1250CF85E997E00C940E120C
:102BD000EF92FF920F9340E062E081E00E94F801E3
:102BE0009093B5078093B40740E062E081E00E94D3
:102BF000F8019093B7078093B60740E062E081E068
:102C00000E94F8019093B9078093B80790EBE92EE2
:102C100097E0F92E03E020E030E045E550E06FE07A
:102C200071E083EE94E10E94AF0422EBE22E27E0F4
:102C3000F22E02E020E030E045E550E068E171E08E
:102C400084E295E10E94AF043AEAE32E37E0F32EE6
:102C500020E030E045E550E061E271E08BEC94E18A
:102C60000E94AF0448EAE42E47E0F42E03E020E09F
:102C700030E045E550E069E271E08FE094E10E94C8
:102C8000AF045CEAE52E57E0F52E02E020E030E0EC
:102C900045E550E061E371E08DE993E10E94AF0406
:102CA0006EEAE62E67E0F62E20E030E045E550E0E3
:102CB00069E371E084E893E10E94AF040E9490060A
:102CC00081E090E00F91FF90EF900895EF92FF92D6
:102CD0000F931F9370E4E72EF12C00E410E020E83E
:102CE00035E240E050E060E070E08FEB97E00E945A
:102CF000EE1027E040E250E061E270E08AEB97E0FE
:102D00000E94940E84EA97E01F910F91FF90EF903C
:102D10000C941B0F8FEB97E00C94461197FB072E3A
:102D200016F4009407D077FD09D00E94CE1607FC58
:102D300005D03EF4909581959F4F089570956195CB
:102D40007F4F0895A1E21A2EAA1BBB1BFD010DC0E7
:102D5000AA1FBB1FEE1FFF1FA217B307E407F5074B
:102D600020F0A21BB30BE40BF50B661F771F881F27
:102D7000991F1A9469F760957095809590959B01BD
:102D8000AC01BD01CF010895EE0FFF1F0590F49136
:102D9000E02D09940790F691E02D0994AA1BBB1B26
:102DA00051E107C0AA1FBB1FA617B70710F0A61B4B
:102DB000B70B881F991F5A95A9F780959095BC016C
:102DC000CD010895D9D008F481E008950CD00FC149
:102DD00007D140F0FED030F021F45F3F19F0F0C091
:102DE000511139C1F3C014D198F39923C9F3552374
:102DF000B1F3951B550BBB27AA27621773078407EE
:102E000038F09F5F5F4F220F331F441FAA1FA9F3A3
:102E100033D00E2E3AF0E0E830D091505040E69595
:102E2000001CCAF729D0FE2F27D0660F771F881FF6
:102E3000BB1F261737074807AB07B0E809F0BB0BE5
:102E4000802DBF01FF2793585F4F2AF09E3F510509
:102E500068F0B6C000C15F3FECF3983EDCF38695A6
:102E600077956795B795F7959F5FC9F7880F911D7F
:102E70009695879597F90895E1E0660F771F881F6B
:102E8000BB1F621773078407BA0720F0621B730B1E
:102E9000840BBA0BEE1F88F7E095089504D0689470
:102EA000B111D9C00895BCD088F09F5790F0B92FC8
:102EB0009927B751A0F0D1F0660F771F881F991F8F
:102EC0001AF0BA95C9F712C0B13081F0C3D0B1E0A1
:102ED0000895C0C0672F782F8827B85F39F0B93FB1
:102EE000CCF3869577956795B395D9F73EF4909591
:102EF0008095709561957F4F8F4F9F4F0895E8940F
:102F000009C097FB3EF490958095709561957F4F31
:102F10008F4F9F4F9923A9F0F92F96E9BB279395DF
:102F2000F695879577956795B795F111F8CFFAF4EF
:102F3000BB0F11F460FF1BC06F5F7F4F8F4F9F4F20
:102F400016C0882311F096E911C0772321F09EE87E
:102F5000872F762F05C0662371F096E8862F70E0E4
:102F600060E02AF09A95660F771F881FDAF7880FBE
:102F70009695879597F90895990F0008550FAA0B14
:102F8000E0E8FEEF16161706E807F907C0F012167C
:102F90001306E407F50798F0621B730B840B950B7F
:102FA00039F40A2661F0232B242B252B21F40895D4
:102FB0000A2609F4A140A6958FEF811D811D089571
:102FC00097F99F6780E870E060E008959FEF80ECDC
:102FD000089500240A94161617061806090608957F
:102FE00000240A9412161306140605060895092EE5
:102FF0000394000C11F4882352F0BB0F40F4BF2B54
:1030000011F460FF04C06F5F7F4F8F4F9F4F089593
:1030100057FD9058440F551F59F05F3F71F0479589
:10302000880F97FB991F61F09F3F79F0879508956E
:10303000121613061406551FF2CF4695F1DF08C08D
:10304000161617061806991FF1CF869571056105AA
:1030500008940895E894BB2766277727CB0197F952
:1030600008958ADF08F48FEF08950BD0C0CFB1DF49
:1030700028F0B6DF18F0952309F0A2CFA7CF1124CE
:10308000EACFC6DFA0F3959FD1F3950F50E0551F0F
:10309000629FF001729FBB27F00DB11D639FAA27AD
:1030A000F00DB11DAA1F649F6627B00DA11D661FFC
:1030B000829F2227B00DA11D621F739FB00DA11D1D
:1030C000621F839FA00D611D221F749F3327A00DD7
:1030D000611D231F849F600D211D822F762F6A2F73
:1030E00011249F5750408AF0E1F088234AF0EE0FF8
:1030F000FF1FBB1F661F771F881F91505040A9F705
:103100009E3F510570F05CCFA6CF5F3FECF3983E39
:10311000DCF3869577956795B795F795E7959F5F6B
:10312000C1F7FE2B880F911D9695879597F9089505
:10313000CF93DF938230910510F482E090E0E0912C
:10314000C707F091C80720E030E0A0E0B0E030977A
:1031500039F14081518148175907B8F0481759078C
:1031600071F482819381109729F013969C938E932A
:1031700012972CC09093C8078093C70727C02115CA
:10318000310531F04217530718F0A901DB0101C0E6
:10319000EF019A01BD01DF010280F381E02DD7CF5D
:1031A00021153105F9F0281B390B2430310580F445
:1031B0008A819B816115710521F0FB0193838283D4
:1031C00004C09093C8078093C707FE01329644C09D
:1031D000FE01E20FF31F819391932250310939834D
:1031E00028833AC02091C5073091C607232B41F4AC
:1031F00020910201309103013093C6072093C50747
:1032000020910001309101012115310541F42DB7C4
:103210003EB74091040150910501241B350BE0910C
:10322000C507F091C607E217F307A0F42E1B3F0B6A
:103230002817390778F0AC014E5F5F4F2417350728
:1032400048F04E0F5F1F5093C6074093C507819308
:10325000919302C0E0E0F0E0CF01DF91CF910895BB
:10326000CF93DF93009709F487C0FC013297138254
:103270001282C091C707D091C807209781F420819E
:103280003181280F391F8091C5079091C607821799
:10329000930779F5F093C607E093C5076DC0DE018B
:1032A00020E030E0AE17BF0750F412964D915C91CC
:1032B00013979D014115510509F1DA01F3CFB3834D
:1032C000A28340815181840F951F8A179B0771F457
:1032D0008D919C911197840F951F02969183808305
:1032E00012968D919C9113979383828321153105BA
:1032F00029F4F093C807E093C7073EC0D90113969D
:10330000FC93EE9312974D915D91A40FB51FEA17B0
:10331000FB0779F480819181840F951F0296D90172
:1033200011969C938E938281938113969C938E9396
:103330001297E0E0F0E08A819B81009719F0FE018E
:10334000EC01F9CFCE01029628813981820F931FBB
:103350002091C5073091C6072817390769F43097BF
:1033600029F41092C8071092C70702C01382128274
:10337000D093C607C093C507DF91CF910895FB0195
:10338000DC0102C001900D9241505040D8F70895E1
:1033900010E0C0ECD0E000E006C022970109FE0179
:1033A0000BBF0E94CA16C23CD10780E00807A9F7EC
:0433B000F894FFCFBF
:1033B4000000C907200049444C45003E39390054F7
:1033C400617265614348460054617265614D5452AF
:1033D400005461726561534D0054617265615553C7
:1033E40000546172656152460054617265614C45D6
:0233F400440093
:00000001FF
