:100000000C9447000C9471000C9471000C947100D6
:100010000C9471000C9471000C9471000C9471009C
:100020000C9471000C9471000C9471000C9471008C
:100030000C9471000C9471000C9471000C9471007C
:100040000C94C60D0C9471000C9471000C9471000A
:100050000C9471000C9471000C9471000C9471005C
:100060000C9471000C9471000C9471000C9471004C
:100070000C9471000C9471000C9471000C9471003C
:100080000C9471000C9471000C9471009B0F11245E
:100090001FBECFEFD0E4DEBFCDBF11E0A0E0B1E0E6
:1000A000E8EEFFE100E00BBF02C007900D92AE301A
:1000B000B107D9F725E0AEE0B1E001C01D92A7324B
:1000C000B207E1F710E0C7E4D0E004C02197FE01D9
:1000D0000E94D10FC634D107C9F70E94750F0C9446
:1000E000F20F0C940000FC010396928381832FEFA2
:1000F0003FEF3483238396838583908787831082A1
:100100000895FC01118610860895CF93DF939C011A
:10011000FB01DC011196CD91DC911297D383C28350
:100120008C819D81958384838C819D81DC011396D4
:100130007C936E9312977D836C8331872087F901BE
:1001400080818F5F8083DF91CF9108950F931F93FC
:10015000CF93DF938C01FB01808191818F3F2FEF43
:10016000920721F4E801AF81B8850EC0D80113963B
:1001700012962D913C911397E9014881598184177A
:10018000950710F0D901F4CF12968D919C91139799
:1001900093838283EC01FD83EC83B583A483139660
:1001A000FC93EE93129711870087F80180818F5F8F
:1001B0008083DF91CF911F910F910895CF93DF93AB
:1001C000FC01A085B1858281938124813581EC0178
:1001D0003D832C83C481D5819B838A8311968D9125
:1001E0009C9112978E179F0721F41296DC93CE9361
:1001F0001197118610868C9181508C93DF91CF914D
:1002000008950F931F93CF93DF93EC01042F1A8D62
:100210008C8D8823B9F1482F50E0011115C08C81D5
:100220009D810E94E90F2C8D8C819D81820F911DF3
:100230009D838C832A813B818217930718F18881E3
:1002400099819D838C831EC08E819F810E94E90FBE
:100250008C8D90E09195819591092E813F81280F99
:10026000391F3F832E83488159812417350730F485
:100270002A813B81820F931F9F838E83023011F46A
:10028000111111501F5F1A8F80E0DF91CF911F91E4
:100290000F910895FC01CB01448D4423A1F050E05F
:1002A00026813781240F351F37832683628173812E
:1002B0002617370720F02081318137832683668116
:1002C00077810C94E90F0895EF92FF921F93CF93DB
:1002D000DF93EC010FB6F8940F921E8D7C0181E143
:1002E000E80EF11C11165CF48989882341F0C701DE
:1002F0000E94230981110E94D4091150F3CF8FEF7E
:100300008E8F0F900FBE0FB6F8940F921D8D7E0149
:1003100088E0E80EF11C11165CF48885882341F012
:10032000C7010E94230981110E94D4091150F3CF03
:100330008FEF8D8F0F900FBEDF91CF911F91FF90A8
:10034000EF900895CF93DF93EC010FB6F8940F92DE
:10035000288139819B8D4C8D949FC0011124F90116
:10036000E80FF91FFB83EA831A8E3D832C83841BDD
:100370009109820F931F9F838E838FEF8D8F8E8FB6
:1003800061110CC08885882389F0CE0108960E94EF
:100390002309882359F00E94120D08C0CE01089647
:1003A0000E947300CE0141960E9473000F900FBE11
:1003B00081E0DF91CF910895EF92FF921F93CF9349
:1003C000DF931F92CDB7DEB7182F662321F0869FEB
:1003D000C001112402C080E090E04F9669830E9422
:1003E0002B0C7C016981009789F0611104C0FC012C
:1003F0009183808304C04F96F70191838083F70136
:10040000138F648F61E0C7010E94A201C7010F90A2
:10041000DF91CF911F91FF90EF900895AF92BF921F
:10042000CF92DF92FF920F931F93CF93DF9300D071
:1004300000D01F92CDB7DEB78C016B015D834C837A
:10044000F22E90E0580188E0A80EB11C0FB6F89487
:100450000F92F801228D838D281718F0F2E0FF1219
:1004600014C04F2DB601C8010E940101F801918905
:10047000992321F0C80141960E94230981110E940D
:10048000120D0F900FBE81E050C02C813D81232BB7
:1004900019F40F900FBE48C0911104C0CE0101960F
:1004A0000E9497090F900FBE0E94A1060FB6F89404
:1004B0000F92F801858D8F3F09F4158EF801868D16
:1004C0008F3F09F4168E0F900FBEBE016C5F7F4FF9
:1004D000CE0101960E94A209811121C00FB6F894A5
:1004E0000F92F801928D0F900FBE838D981311C05B
:1004F0006C817D81C5010E94F908C8010E946401D8
:100500000E946D07882311F091E0A0CF0E94120D88
:10051000FBCFC8010E9464010E946D07F5CFC8019E
:100520000E9464010E946D0780E00F900F900F9071
:100530000F900F90DF91CF911F910F91FF90DF905F
:10054000CF90BF90AF900895EF92FF921F93CF93FB
:10055000DF93EC019A8D8B8D981710F02230E1F427
:100560007A011E8D422FCE010E9401011F3F81F4AE
:100570008989882379F0CE0141960E942309882336
:1005800049F0E114F10431F081E0F701808305C006
:100590001F5F1E8F81E001C080E0DF91CF911F912E
:1005A000FF90EF900895CF93DF93FC01928D838DA0
:1005B0009817C0F4868D9F5F928F8F3F79F4818961
:1005C000882371F0EB01CF0141960E942309882313
:1005D00039F0209729F081E0888305C08F5F868FEE
:1005E00081E001C080E0DF91CF910895AF92BF928A
:1005F000CF92DF92EF92FF920F931F93CF93DF93EF
:1006000000D000D01F92CDB7DEB78C016B015D83A7
:100610004C83E22E90E0580181E1A80EB11C0FB688
:10062000F8940F92F801F28CFF2021F1A680B78098
:10063000B601C8010E944A01E1100FC0FA94F80106
:10064000F28E8085882391F0C80108960E942309C4
:10065000882361F00E94120D09C0F801B782A682BA
:100660008189882319F0C8014196F0CF0F900FBE01
:1006700081E058C02C813D81232B19F40F900FBECF
:1006800050C0911104C0CE0101960E9497090F90AD
:100690000FBE0E94A1060FB6F8940F92F801858D47
:1006A0008F3F09F4158EF801868D8F3F09F4168E61
:1006B0000F900FBEBE016C5F7F4FCE0101960E946E
:1006C000A209811120C00FB6F8940F92F801828D13
:1006D0000F900FBE811111C06C817D81C5010E94F8
:1006E000F908C8010E9464010E946D07882311F077
:1006F00091E095CF0E94120DFBCFC8010E946401CA
:100700000E946D07F5CFC8010E9464010E946D0729
:100710000FB6F8940F92F801928D0F900FBE9111C1
:10072000E7CF80E00F900F900F900F900F90DF9128
:10073000CF911F910F91FF90EF90DF90CF90BF90DE
:10074000AF900895EF92FF920F931F93CF93DF9393
:10075000FC01028D0023E9F07A01EC01158D0E9465
:100760004A0101500A8F1F3F81F48885882379F060
:10077000CE0108960E942309882349F0E114F10470
:1007800031F081E0F701808305C01F5F1D8F81E09C
:1007900001C080E0DF91CF911F910F91FF90EF900A
:1007A00008950F931F93CF93DF93FC01228D222393
:1007B00049F0EC01068117810E944A011F830E83D4
:1007C00081E001C080E0DF91CF911F910F910895EA
:1007D0000FB6F8940F92FC01828D0F900FBE089512
:1007E0000FB6F8940F92FC01228D0F900FBE838DEF
:1007F000821B0895FC01828D08950C945D0CFC0110
:10080000928D81E0911180E00895FC01228D81E0BC
:10081000938D291380E00895E0913C01F0913D0112
:100820008081811103C08FEF9FEF0CC0E0913C01EC
:10083000F0913D010580F681E02D0680F781E02DE5
:100840008281938190931401809313010895EF9214
:10085000FF920F931F93CF93DF931F92CDB7DEB715
:100860007C0100911B0110911C0180910E0190915F
:100870000F01029669830E94DE0069818FEFE816FE
:10088000F80699F4662389F060910E0170910F01CA
:100890006E5F7F4F8EE191E00F90DF91CF911F91BE
:1008A0000F91FF90EF900C948500E00EF11EE09107
:1008B0000E01F0910F01F382E28260910E017091BE
:1008C0000F01E016F10678F480913A0190913B0116
:1008D0006E5F7F4F0F90DF91CF911F910F91FF902F
:1008E000EF900C94A60080913C0190913D016E5FC9
:1008F0007F4F0E94A6008091130190911401E81689
:10090000F90620F4F0921401E09213010F90DF91A8
:10091000CF911F910F91FF90EF9008954F925F92AA
:100920006F927F928F929F92AF92BF92CF92DF92FF
:10093000EF92FF920F931F93CF93DF935C01762E7C
:10094000172F6A014901CA010E942B0C2C01892B27
:1009500009F4D1C086E290E00E942B0CEC010097D4
:1009600079F0588E4F8A21E0C21AD108C40CD51CE8
:10097000BC01675E7F4FE72DF12FCF01089607C0BE
:10098000C2010E945D0CB7C0E817F90749F09F014A
:100990004191DB014D93BD01D9012C912111F4CF7F
:1009A00018A2043008F003E00E8B3E01B2E06B0E9B
:1009B000711CC3010E948100CE010C960E9481002F
:1009C000D987C88784E090E0801B91099D878C8738
:1009D000DB8BCA8B19A21AA21BA21CA21DA2A40106
:1009E000B501C6010E946C0C99838883E114F1045F
:1009F00019F0F701D183C0830FB6F8940F9280915C
:100A00001D018F5F80931D0180910E0190910F0158
:100A1000892BD1F5D0930F01C0930E0180911D0158
:100A2000813009F041C080E591E00E94730089E5C2
:100A300091E00E94730082E691E00E9473008BE6D1
:100A400091E00E94730087E491E00E9473008EE3BE
:100A500091E00E94730081E391E00E94730088E2BC
:100A600091E00E9473008EE191E00E94730087E4A0
:100A700091E090933D0180933C018EE391E090934F
:100A80003B0180933A0110C08091190181110CC083
:100A9000E0910E01F0910F0196898E89891720F05F
:100AA000D0930F01C0930E01809115018F5F809349
:100AB00015018E8990911A01981710F480931A01EC
:100AC000F9E08F9FC0011124B301805B9E4F0E940B
:100AD00085000F900FBE80911901882351F0E0919D
:100AE0000E01F0910F0196898E89981710F40E94DB
:100AF000120D81E001C08FEFDF91CF911F910F9117
:100B0000FF90EF90DF90CF90BF90AF909F908F902D
:100B10007F906F905F904F9008950F931F93CF93A6
:100B2000DF93EC010FB6F8940F92892B21F4C0915A
:100B30000E01D0910F018E010E5F1F4FC8010E9460
:100B4000DE008C899D89892B21F0CE010C960E94B4
:100B5000DE00909115019F5F9093150180910E0129
:100B600090910F01C817D90759F4B80188E291E0B4
:100B70000E948500809127018F5F809327010EC01E
:100B800080911D01815080931D018F89988D0E9455
:100B90005D0CCE010E945D0C0E940C040F900FBEF4
:100BA00080911901882349F080910E0190910F01E5
:100BB000C817D90711F40E94120DDF91CF911F9130
:100BC0000F9108950F931F93CF93DF93009709F42C
:100BD0003CC020910E0130910F0182179307A9F1BB
:100BE0000FB6F8940F92FC01228533852E513140C7
:100BF00051F5FC0124893589F1E021333F0719F1D2
:100C0000232B09F5EC018C010E5F1F4FC8010E94D8
:100C1000DE009E8980911A01891710F490931A01C1
:100C200029E0929FC0011124B801805B9E4F0E9471
:100C30008500E0910E01F0910F019E898689981739
:100C400010F00E94120D0F900FBEDF91CF911F91F7
:100C50000F910895EF92FF921F93CF93DF93EC01D2
:100C60008A859B858E51914099F48C899D8921E0DC
:100C70008133920769F0892B59F480911001882300
:100C800049F0BE01645F7F4F81E391E00E948500DF
:100C900010E021C0E0910E01F0910F0111E09E895A
:100CA0008689981708F410E07E0182E0E80EF11CB6
:100CB000C7010E94DE009E8980911A01891710F4F5
:100CC00090931A0129E0929FC0011124B701805B23
:100CD0009E4F0E948500812FDF91CF911F91FF9041
:100CE000EF900895EF92FF920F9381E1E82E81E05B
:100CF000F82E00E020E030E045E550E060E071E0F3
:100D000080E398E00E948E04813091F4F8942FEFF4
:100D10003FEF309314012093130180931901109237
:100D20001C0110921B010F91FF90EF900C94D80CB6
:100D30000F91FF90EF900895F894109219010C9480
:100D4000110D809110018F5F8093100108950FB6EF
:100D5000F8940F9280911B0190911C010F900FBE8F
:100D6000089580911B0190911C01089580911D01AF
:100D70000895009721F480910E0190910F014996FA
:100D80000895CF92DF92EF92FF920F931F93CF932C
:100D9000DF938091100181118CC000911B01109193
:100DA0001C010F5F1F4F10931C0100931B010115C5
:100DB0001105B9F480913C0190913D0120913A01D7
:100DC00030913B0130933D0120933C0190933B01D6
:100DD00080933A01809116018F5F809316010E94E3
:100DE0000C048091130190911401C0E008171907B9
:100DF00008F44FC0D9E0E0913C01F0913D018081C1
:100E0000811103C08FEF9FEF11C0E0913C01F09181
:100E10003D010580F681E02DE680F780D70112962E
:100E20008D919C9113970817190728F4909314013A
:100E3000809313012EC06701B2E0CB0ED11CC60116
:100E40000E94DE00F70184899589892B21F0C70172
:100E50000C960E94DE00D70156969C9180911A0153
:100E6000891710F490931A01D99FC0011124B6017B
:100E7000805B9E4F0E948500E0910E01F0910F0172
:100E8000D70156969C918689981708F4B4CFC1E093
:100E9000B2CFE0910E01F0910F01E689B9E0EB9F2E
:100EA000F0011124E05BFE4F8081823040F0C1E010
:100EB00006C0809118018F5F80931801C0E0809177
:100EC00017018111C1E08C2FDF91CF911F910F91FC
:100ED000FF90EF90DF90CF900895EF92FF920F93E5
:100EE0001F93CF93DF930FB6F8940F928091100168
:100EF00081508093100180911001882311F080E0CF
:100F000052C080911D018823D1F3C0E0D0E089E078
:100F1000F82EEE24E39480913101882351F1E09181
:100F20003601F0913701C681D781CE010C960E941F
:100F3000DE008E010E5F1F4FC8010E94DE009E89F9
:100F400080911A01891710F490931A01F99EC0013B
:100F50001124B801805B9E4F0E948500E0910E0134
:100F6000F0910F019E8986899817A8F2E0921701E7
:100F7000D2CFCD2B11F00E940C04C0911801CC23CC
:100F800051F0D1E00E94C1068111D0931701C150E8
:100F9000C9F71092180180911701882309F4AFCF87
:100FA0000E94120D81E00F900FBEDF91CF911F9133
:100FB0000F91FF90EF9008950F931F93CF93DF93BE
:100FC0008C01EB010E94A10640911B0150911C0174
:100FD000F801608171819B012C0F3D1F4617570757
:100FE00028F42617370748F491E004C091E026174B
:100FF000370720F04217530708F090E0F8013183DB
:101000002083992331F060E0C901841B950B0E9475
:1010100027040E946D07811102C00E94120DDF910A
:10102000CF911F910F910895CF93DF9300D0CDB74B
:10103000DEB7009719F40E94120D0DC089839A83C0
:101040000E94A10660E089819A810E9427040E9483
:101050006D07882381F30F900F90DF91CF91089552
:1010600080912701882349F10E94A106C09128019F
:101070000E946D07CC23A1F30FB6F8940F92E09174
:101080002D01F0912E01C681D781CE0102960E94DA
:10109000DE0080911D01815080931D018091270108
:1010A0008150809327010F900FBE8F89988D0E94E9
:1010B0005D0CCE010E945D0CD3CF80915001823037
:1010C00078F20E94120DCCCF80911001882321F07C
:1010D00081E08093170108951092170180911A0101
:1010E00069E0482F50E0649F9001659F300D112406
:1010F000F901E05BFE4F9081911102C08150F1CF68
:10110000A181B28112960D90BC91A02DB283A183D2
:101110002D5A3E4FA217B30731F412962D913C91F0
:1011200013973283218399E0949FF001959FF00DEE
:101130001124E05BFE4F0180F281E02D2681378192
:1011400030930F0120930E0180931A0108950F939D
:101150001F93CF93DF93EC010FB6F8940F92892B76
:1011600021F4C0910E01D0910F018E010E5F1F4F2F
:10117000C8010E94DE008C899D89892B21F0CE0157
:101180000C960E94DE00B8018EE191E00E9485007D
:101190000F900FBE80911901882339F00FB6F89493
:1011A0000F920E940C040F900FBE80910E0190913F
:1011B0000F01C817D907C1F480911901882319F0CC
:1011C0000E94120D11C080911D0190911E01981373
:1011D00005C010920F0110920E0106C0DF91CF9151
:1011E0001F910F910C946408DF91CF911F910F9183
:1011F0000895CF93DF93EB0120910E0130910F0101
:10120000B901645F7F4F0E94A60061E0CE01DF91CB
:10121000CF910C942704CF93DF93EA01E0910E0164
:10122000F0910F0170687587648760910E0170916D
:101230000F01645F7F4F0E94850061E0CE01DF9166
:10124000CF910C9427040F931F93CF93DF93DC016E
:101250001596ED91FC911697C681D7818E01045F9A
:101260001F4FC8010E94DE0080911001811114C03F
:101270000A501109C8010E94DE009E8980911A015E
:10128000891710F490931A01B9E09B9FC0011124B3
:10129000B801805B9E4F03C0B80181E391E00E94DA
:1012A0008500E0910E01F0910F019E8986898917D2
:1012B00020F481E08093170101C080E0DF91CF919D
:1012C0001F910F9108950F931F93CF93DF93706831
:1012D000FC0171836083C681D7810E94DE008E018C
:1012E0000E5F1F4FC8010E94DE009E8980911A0187
:1012F000891710F490931A01F9E09F9FC0011124FF
:10130000B801805B9E4F0E948500E0910E01F09134
:101310000F019E898689891720F481E08093170147
:1013200001C080E0DF91CF911F910F91089520912E
:101330001601FC01208320911B0130911C01328396
:1013400021830895CF93DF930FB6F8940F92E09125
:101350001B01F0911C01DB012D913C912F3FBFEF50
:101360003B07D1F0B0911601EC01A88149815A8167
:10137000BA1719F0E417F50788F4DF01A41BB50BC1
:10138000A217B30758F4DB014E1B5F0B240F351F68
:101390002D933C930E94970980E001C081E00F905B
:1013A0000FBEDF91CF91089581E0809317010895DA
:1013B000E0910E01F0910F0184859585E0910E0179
:1013C000F0910F01A0910E01B0910F0156964C9132
:1013D00024E030E0241B31093587248708950F93DA
:1013E0001F93182FCB010FB6F8940F92E0910E01C6
:1013F000F0910F0141A152A163A174A1452B462B8D
:10140000472B69F4E0910E01F0910F0121E025A333
:10141000009729F061E00E9427040E94120D0F90AE
:101420000FBE0FB6F8940F92E0910E01F0910F01EC
:1014300061A172A183A194A1611571058105910536
:10144000A9F0E0910E01F0910F01112329F011A2F2
:1014500012A213A214A20AC08B019C01015011090F
:101460002109310901A312A323A334A3E0910E01A2
:10147000F0910F0115A20F900FBE1F910F910895CB
:101480004F925F926F927F928F929F92AF92BF9294
:10149000EF92FF920F931F93CF93DF9300D000D072
:1014A000CDB7DEB70FB6F8940F92E0910E01F09130
:1014B0000F01E5A1E23079F1E0910E01F0910F0109
:1014C00041A052A063A074A04B015C018094909451
:1014D000A094B094D501C40184219521A621B721FF
:1014E00081A392A3A3A3B4A3E0910E01F0910F01F5
:1014F00081E085A3E114F10471F061E0C701298363
:101500003A834B835C830E9427040E94120D5C8106
:101510004B813A8129810F900FBE0FB6F8940F923C
:101520000115110569F0E0910E01F0910F0181A103
:1015300092A1A3A1B4A1F80180839183A283B38374
:10154000E0910E01F0910F0185A18130C1F0E09191
:101550000E01F0910F0181A192A1A3A1B4A1BA0142
:10156000A901409550956095709584239523A623F5
:10157000B72381A392A3A3A3B4A381E001C080E019
:10158000E0910E01F0910F0115A20F900FBE0F9088
:101590000F900F900F90DF91CF911F910F91FF90BF
:1015A000EF90BF90AF909F908F907F906F905F90E3
:1015B0004F9008950F931F93CF93DF93FC010FB6C5
:1015C000F8940F920115110549F081A192A1A3A1F0
:1015D000B4A1E80188839983AA83BB83C5A182E073
:1015E00085A322303105A1F060F42130310511F5D9
:1015F00081A192A1A3A1B4A1482B592B6A2B7B2BCB
:1016000015C02330310591F02430310569F012C046
:1016100081A192A1A3A1B4A10196A11DB11D81A395
:1016200092A3A3A3B4A306C0C23049F141A352A31D
:1016300063A374A3C13009F5EF018F010E5F1F4F43
:10164000C8010E94DE009E8980911A01891710F45A
:1016500090931A0129E0929FC0011124B801805B88
:101660009E4F0E948500E0910E01F0910F019E892E
:101670008689891710F40E94120D81E001C080E074
:101680000F900FBEDF91CF911F910F910895EF92B0
:10169000FF920F931F93CF93DF93FC010115110568
:1016A00049F081A192A1A3A1B4A1E8018883998303
:1016B000AA83BB83C5A182E085A322303105A1F0B6
:1016C00060F42130310511F581A192A1A3A1B4A14B
:1016D000482B592B6A2B7B2B15C02330310591F0F9
:1016E0002430310569F012C081A192A1A3A1B4A157
:1016F0000196A11DB11D81A392A3A3A3B4A306C00B
:10170000C230D9F141A352A363A374A3C13011F035
:1017100081E034C0EF0180911001811115C08F016B
:101720000E5F1F4FC8010E94DE002E8980911A01B2
:10173000821710F420931A01E9E02E9FC0011124B2
:10174000B801805B9E4F05C0BF01645F7F4F81E39E
:1017500091E00E948500E0910E01F0910F019E89B9
:1017600086898917A8F681E0E114F10419F0E701F0
:10177000888304C08093170101C080E0DF91CF917E
:101780001F910F91FF90EF900895EF92FF920F93AA
:101790001F93CF93DF93FC0125A182E085A381A154
:1017A00092A1A3A1B4A10196A11DB11D81A392A3F1
:1017B000A3A3B4A32130A1F58B01EF018091100107
:1017C000811116C07F0132E0E30EF11CC7010E94B7
:1017D000DE002E8980911A01821710F420931A01DD
:1017E000E9E02E9FC0011124B701805B9E4F05C028
:1017F000BF01645F7F4F81E391E00E948500E0912B
:101800000E01F0910F019E898689891748F481E0C5
:101810000115110519F0F801808302C080931701AA
:10182000DF91CF911F910F91FF90EF900895009756
:1018300021F480910E0190910F010FB6F8940F9250
:10184000FC0125A1223019F415A281E001C080E03D
:101850000F900FBE0895CF93DF93EC010E94A10675
:101860008091740190917501892B31F489E791E0A1
:1018700090937501809374012091760130917701E6
:10188000CE01820F931F833843E0940770F428172A
:10189000390758F4C0917401D0917501C20FD31F5C
:1018A000909377018093760102C0C0E0D0E00E945F
:1018B0006D07CE01DF91CF910895089510927701C1
:1018C000109276010895209176013091770183E896
:1018D00093E0821B930B089531E1FC013083319733
:1018E00022E220833197A3E3A0833197608331976D
:1018F000708331971082319760E86083319710824E
:10190000319762E06083319763E06083319764E0F0
:101910006083319765E06083319766E0608331973B
:1019200067E06083319768E06083319769E06083A6
:10193000319760E1608331973083319732E13083B2
:10194000319733E13083319734E13083319735E19A
:101950003083319736E13083319737E130833197E7
:1019600038E13083319739E13083319730E2308389
:10197000319731E2308331972083319723E22083FE
:101980003197408331975083319726E220833197F6
:1019900027E22083319728E22083319729E22083B0
:1019A000319720E32083319721E3208386970895A0
:1019B00089EF87BD84B5826084BD83E085BDEEE696
:1019C000F0E0808182608083A0910E01B0910F01D0
:1019D000CD91CDBFDD91DEBFFF91EF91DF91CF9132
:1019E000BF91AF919F918F917F916F915F914F9137
:1019F0003F912F911F910F91FF90EF90DF90CF902B
:101A0000BF90AF909F908F907F906F905F904F901E
:101A10003F902F901F900F900FBE0F90089581E080
:101A2000089508950F920FB6F8940F921F92112403
:101A30002F923F924F925F926F927F928F929F92DE
:101A4000AF92BF92CF92DF92EF92FF920F931F93CC
:101A50002F933F934F935F936F937F938F939F93B6
:101A6000AF93BF93CF93DF93EF93FF93A0910E01BA
:101A7000B0910F010DB60D920EB60D920E94640842
:101A8000A0910E01B0910F01CD91CDBFDD91DEBFD0
:101A9000FF91EF91DF91CF91BF91AF919F918F9186
:101AA0007F916F915F914F913F912F911F910F9176
:101AB000FF90EF90DF90CF90BF90AF909F908F906E
:101AC0007F906F905F904F903F902F901F900F905E
:101AD0000FBE0F9008950F920FB6F8940F921F92B9
:101AE00011242F923F924F925F926F927F928F922A
:101AF0009F92AF92BF92CF92DF92EF92FF920F939D
:101B00001F932F933F934F935F936F937F938F9385
:101B10009F93AF93BF93CF93DF93EF93FF93A091E6
:101B20000E01B0910F010DB60D920EB60D920E94EE
:101B3000C1060E946408A0910E01B0910F01CD91E1
:101B4000CDBFDD91DEBFFF91EF91DF91CF91BF91CE
:101B5000AF919F918F917F916F915F914F913F9145
:101B60002F911F910F91FF90EF90DF90CF90BF903A
:101B7000AF909F908F907F906F905F904F903F902D
:101B80002F901F900F900FBE0F9008950E946B0D25
:101B9000189584B18F6084B98AB180638AB98FEF58
:101BA0009FEF909387008093860010928900109297
:101BB000880010928B0010928A00E0E8F0E08081AB
:101BC000806A8083808182608083E1E8F0E08081A8
:101BD000886180838081816080830895611107C05E
:101BE0002998289A5093890040938800089561307D
:101BF00031F42B982A9A50938B0040938A000895D1
:101C0000611107C0299A2898509389004093880051
:101C10000895613031F42B9A2A9850938B004093A9
:101C20008A0008954FEF5FEF60E00E94EE0D2B9A5F
:101C30002A988FEF9FEF90938B0080938A00FFCFBD
:101C4000CF93DF931F92CDB7DEB7FC012983718359
:101C50006083898184838481DB019C91892B8C93AF
:101C6000538342830F90DF91CF910895FC019481BB
:101C70000280F381E02D8081892B80830895FC010F
:101C800094810280F381E02D8081282F30E0892F1C
:101C900090E0809590958223932380830895CF933D
:101CA000DF9300D000D000D0CDB7DEB7A4E6B0E01F
:101CB0009A01AB010E94C60F69837A838B839C8350
:101CC0001E821D828D819E8149815A816B817C811A
:101CD000092E000CAA0BBB0B481759076A077B0794
:101CE00030F08D819E8101969E838D83EBCF269669
:101CF0000FB6F894DEBF0FBECDBFDF91CF91089530
:101D0000FC01A481B58182E08C93A481B58184E03B
:101D100011968C93A481B58188E012968C93A4814E
:101D2000B58180E113968C93A481B58180E21496ED
:101D30008C938CB590E0938382830190F081E02DA9
:101D400084E290E09183808385E290E093838283B4
:101D50000895FC01A081B1810D90BC91A02D9C91B2
:101D60009E629C930280F381E02D80818660808357
:101D70000895DC011296ED91FC91139762831296FF
:101D8000ED91FC9113978181877009F4FFCF08953D
:101D90006115710521F06130710551F00895DC0184
:101DA000ED91FC910280F381E02D80818B7F08C052
:101DB000DC01ED91FC910280F381E02D8081846053
:101DC00080830895DC01ED91FC9111970190F081E1
:101DD000E02D20E120831296ED91FC91139786E08F
:101DE00080830895DC011296ED91FC911397818117
:101DF000877009F4FFCF82810895FC0183E490E0AD
:101E0000918380838BE390E09383828381E490E0ED
:101E10009583848383E090E0978386830895FC0113
:101E2000808191810895FC01828193810895FC0154
:101E3000848195810895FC01868197810895FC0134
:101E40001182108281E090E09383828382E090E0AF
:101E50009583848384E090E09783868386E090E096
:101E60009187808787E090E09387828780E190E088
:101E70009587848780EA90E0978786870895FC019C
:101E8000A081B1818C918E6F8C93A485B58588E7F4
:101E90008C93A685B7850D90BC91A02D8C93028064
:101EA000F381E02D81E080830895FC01A081B18160
:101EB0008C9181608C93A481B5818FE38C93A281F6
:101EC000B3818C93A485B58588E78C930684F785C8
:101ED000E02D0190F081E02D80830895EC01BE019A
:101EE0008EE195E00E94120EFACFEF92FF920F93CF
:101EF000CF93DF9300D0CDB7DEB78FE195E00E949E
:101F0000A90ECE0101967C0100E020E030E045E51D
:101F100050E065E071E08EE69FE00E948E040E9432
:101F2000720680E090E00F900F90DF91CF910F91BB
:101F3000FF90EF90089540E061E084E10E94DC01B1
:101F400090932605809325058FE195E00E94800EF1
:101F50008EE195E00E94C90D86E195E00E94FD0E9C
:101F600086E095E00E941F0F20E842E250E061E227
:101F700070E081E095E00E94200E20E845E250E00C
:101F800064E270E08CEF94E00C94200E0E94DA0F73
:101F9000A59F900DB49F900DA49F800D911D1124BD
:101FA0000895EE0FFF1F0024001C0BBE0790F69152
:101FB000E02D0994A29FB001B39FC001A39F700DB3
:101FC000811D1124911DB29F700D811D1124911D41
:101FD0000895FB01DC0102C001900D924150504078
:081FE000D8F70895F894FFCF33
:0E1FE80049444C45004D6F746F7265730000E4
:00000001FF
